:02000004080AE8
:1000000000000A080C120A0800000600060005019C
:080010000402E50C00000000F1
:04001800700F0A0853
:10001C0009480A4908B5884205D0094A824202D0EB
:10002C00121A00F0EBFE0748074A0021121A00F0E2
:10003C00F3FE064808BD00BF0000002074110A083A
:10004C007000002070000020D9040020D90400208A
:10005C0070B500F003FB0025054E064CA41BA4084C
:10006C00AC4200D170BD56F8043B98470135F7E718
:10007C0050110A0870110A0800F014B808B500F005
:10008C0023F8BDE8084000F0A1BA00F0C9B900F0AF
:10009C00CFB90078B0FA80F04009704701230370A3
:1000AC007047000008B5064B0321188800F0D8FDF6
:1000BC00044B01211888BDE8084000F0D1BD00BFF9
:1000CC00000000207400002008B5094B188800F0CF
:1000DC00F1FD011E14BF01220022064B18BF0121A5
:1000EC001A70054B1888BDE8084000F0CABD00BF67
:1000FC00000000207000002074000020032000F09D
:10010C0003B9000008B5024B1B689B68019308BD3E
:10011C00B001060808B5024B1B68DB68019308BDEB
:10012C00B001060808B5024B1B681B69019308BD9A
:10013C00B001060808B5024B1B685B69019308BD4A
:10014C00B001060808B5024B1B685B68019308BD3B
:10015C009C01060808B5024B1B685B69019308BD3E
:10016C009C01060808B5024B1B685B6C019308BD2B
:10017C00D001060808B5024B1B689B6C019308BDA7
:10018C00D001060808B5024B1B685B6A019308BDD9
:10019C00C401060808B5024B1B689B6A019308BD95
:1001AC00C401060808B5024B1B68DB6A019308BD45
:1001BC00C401060808B5024B1B681B6B019308BDF4
:1001CC00C401060808B5024B1B685B6B019308BDA4
:1001DC00C401060808B5024B1B689B6B019308BD54
:1001EC00C401060808B5024B1B681B6C019308BDC3
:1001FC00C401060808B5024B1B681B6E019308BDB1
:10020C00C401060808B5024B1B681B6E019308BDA0
:10021C00AC01060808B5024B1B685B6E019308BD68
:10022C00AC01060808B5024B1B689B6E019308BD18
:10023C00AC01060808B5024B1B68DB6E019308BDC8
:10024C00AC01060808B5024B1B681B6F019308BD77
:10025C00AC01060808B5024B1B685B6F019308BD27
:10026C00AC01060808B5034B1B68D3F8803001932A
:10027C0008BD0000AC01060808B5024B1B68DB6921
:10028C00019308BDB401060808B5024B1B681B6A34
:10029C00019308BDB401060808B5024B1B681B6826
:1002AC00019308BDD801060808B5024B1B681B69F1
:1002BC00019308BDD801060808B5024B1B685B69A1
:1002CC00019308BDD801060808B5024B1B689B6951
:1002DC00019308BDD801060808B5024B1B68DB6901
:1002EC00019308BDD801060808B5024B1B681B6AB0
:1002FC00019308BDD801060808B5024B1B689B6C1E
:10030C00019308BDC001060808B5024B1B681B6DA4
:10031C00019308BDC001060808B5024B1B685B6859
:10032C00019308BDA401060808B5034B1B68D3F85C
:10033C009030019308BD0000A401060808B5034BDA
:10034C001B68D3F89C30019308BD0000A40106087B
:10035C0008B5024B1B685B68019308BDC801060811
:10036C0008B5024B1B689B68019308BDC8010608C1
:10037C0008B5024B1B68DB68019308BDC801060871
:10038C0008B5024B1B681B69019308BDC801060820
:10039C0008B5024B1B685B69019308BDC8010608D0
:1003AC0008B5024B1B689B69019308BDC801060880
:1003BC0008B5024B1B68DB69019308BDC801060830
:1003CC0008B5024B1B681B6A019308BDC8010608DF
:1003DC0008B5024B1B681B6B019308BDC8010608CE
:1003EC0008B5024B1B685B6B019308BDC80106087E
:1003FC0008B5024B1B681B6C019308BDC8010608AD
:10040C0008B5024B1B685B6C019308BDC80106085C
:10041C0008B5024B1B68DB6B019308BDCC010608C9
:10042C0008B5024B1B681B68019308BDA0010608A8
:10043C0008B5024B1B685B68019308BDA001060858
:10044C0008B5024B1B681B6C019308BDA001060884
:10045C0008B5024B1B685B6C019308BDA001060834
:10046C0070B5002604460D4640F8086FFFF77AFE7B
:10047C0028462570FFF700FF2046666070BD00001F
:10048C0002220020044B1A60044B054AC3E9000009
:10049C009A60FFF741BF00BF840000207800002065
:1004AC000000FFFFF8B506460D4600248F18BD422C
:1004BC000CD0336830469B6815F8011B9847031E17
:1004CC0001DB1C44F3E7002C08BF1C462046F8BD9A
:1004DC0070B505460C46084649B100F0D3FC2B68B4
:1004EC00024621462846BDE87040DB68184770BDBF
:1004FC0003689B6818470023012A98BF0A2230B56D
:10050C008BB00C468DF8243009A92546B4FBF2F4C7
:10051C0004FB1253DBB2092B94BF30333733DBB2FD
:10052C00AA4201F8013DF0D9FFF7D2FF0BB030BD64
:10053C00014B024A1A60704788000020840F0A0899
:10054C00024B1A68024B1A60704700BF040000206F
:10055C008C0000200022014B9A6070479000002014
:10056C00014B1860704700BF0800002008B5134B02
:10057C0043B100F071F903681B699847002801DD4D
:10058C00AFF300800E4B43B100F0C2FB03681B6954
:10059C009847002801DDAFF300800A4B0BB1AFF395
:1005AC000080094B43B100F091F903681B6998472F
:1005BC00002801DDAFF3008008BD00BF0000000083
:1005CC0000000000000000000000000008B5FFF76C
:1005DC00CDFFFFF7BFFD014B186008BD14040020D0
:1005EC000548064A08B5121A054900F007FC054BE8
:1005FC00054A1A6008BD00BF00400240044002409A
:10060C0070110A08004002401E1C279A002307B5EF
:10061C001A466FF077010093FFF790FE03B05DF878
:10062C0004FB000007B543880A2B08D0502B0BD1D4
:10063C00094B1B684BB103B05DF804EB1847FFF78F
:10064C00E5FF03B05DF804FB00231A466FF0770159
:10065C000093FFF773FEF4E7A4000020002110B50F
:10066C001148FFF7F5FE114B1A68114B9A420CBF5B
:10067C00012200220F4B1A7001D0FFF7B1FFFFF7D8
:10068C0061FD044600F0D0FB0B4B13B12046AFF3D9
:10069C00008000210848FFF7BBFEBDE81040002198
:1006AC000648FFF741BE00BF6D050A080040024036
:1006BC001E1C279AA00000200000000031060A082A
:1006CC007047F8B50E46002400F10807051D17F811
:1006DC00011D0A223046FFF70EFFAF42044401D140
:1006EC002046F8BD002CF2D02E213046FFF700FF3B
:1006FC000444ECE710B504461821FFF7C8FC20466B
:10070C0010BD000010B50446044B1122002140F826
:10071C00043B00F081FB204610BD00BFAC0F0A0863
:10072C000346074A10B543F8042B01F1100251F8A7
:10073C00044B914243F8044BF9D10A781A7010BD5E
:10074C00AC0F0A08024AC0E9002104220275704766
:10075C00AC0F0A0810B59DF8084044EA03240423A2
:10076C0044EA024444EA01644460037510BD00008D
:10077C0013B5044C04609DF810400094FFF7EAFF99
:10078C0002B010BDAC0F0A08417470477047704737
:10079C0008B50021007CFFF797FD40EAE07008BD2A
:1007AC0008B50121007CFFF78FFD40EAE07008BD21
:1007BC0008B5007CFFF780FD20EAE07008BD08B5A5
:1007CC00007CFFF771FD20EAE07008BD38B50446E7
:1007DC00007C0D46FFF770FD002801DC607C28B121
:1007EC002946207CFFF778FD20EAE07038BD007CBC
:1007FC00FFF77ABD10B504461421FFF748FC2046DC
:10080C0010BD704710B54FF47A73044608460021AA
:10081C00C4E90113044B2074236001231146637453
:10082C00FFF73AFD204610BDC00F0A0810B504466C
:10083C001422002100F0F0FA054B20466360054BB2
:10084C00E36040F2011323818123238210BD00BF9A
:10085C00D8000020D901002030B50E4D87B001A87A
:10086C00FFF7E4FF2978BFF35B8F11F001040ED181
:10087C002846FFF70EFC50B1214601AA0648FFF7A7
:10088C00C1FF2846FFF70AFC044800F0B1FA024801
:10089C0007B030BDA8000020B000002099070A085E
:1008AC0010B504461422002100F0B6FA054B204680
:1008BC006360054BE36040F20113238181232382A3
:1008CC0010BD00BF5A0200205B03002010B50E4C77
:1008DC0086B001A8FFF7E4FF2378BFF35B8FDB073B
:1008EC000ED42046FFF7D5FB50B1012101AA0748D1
:1008FC00FFF788FF2046FFF7D1FB054800F078FA98
:10090C00024806B010BD00BFAC000020C40000209F
:10091C000F080A0870474174704708B5007CFFF750
:10092C0061FC20EAE07008BD08B5007CFFF732FCE2
:10093C0020EAE07008BD08B5007CFFF73BFC40EAFC
:10094C00E07008BD08B5007CFFF72CFC40EAE070B5
:10095C0008BD007CFFF736BC70B5467C04460D46DE
:10096C002EB12946207CBDE87040FFF70BBC007C03
:10097C00FFF738FC0028F4DC304670BD10B5044697
:10098C001421FFF784FB204610BD000010B54FF476
:10099C007A730446084611460022C4E90123044B2D
:1009AC002074236001236374FFF724FC204610BDE0
:1009BC00F00F0A087047F8B5064615460C468F1816
:1009CC00BC4206D0336830469B6814F8011B98472C
:1009DC00F6E72846F8BD0022007CFFF713BC002187
:1009EC00007CFFF717BC0021007CFFF71BBC00212B
:1009FC00007CFFF71FBC0021007CFFF723BC10B567
:100A0C0004461421FFF743FB204610BD10B54FF4EC
:100A1C007A73044608460021C4E90113034B1146BE
:100A2C0023602074FFF71EFC204610BD20100A081E
:100A3C00002240681146FFF7A3BCF0B5154689B0FB
:100A4C0011220E460446002103A800F0E5F92846C1
:100A5C0000F018FA002781B273682846009703AAA1
:100A6C00FFF74AFC30B139462046FFF76BFE2046B3
:100A7C0009B0F0BD204603A9FFF752FEF7E70022AC
:100A8C0040681146FFF79CBC002240681146FFF7F6
:100A9C00A7BC00224068FFF79BBC0022406881F095
:100AAC000101FFF785BC002340681A461946FFF781
:100ABC0077BC002340681A461946FFF769BC002230
:100ACC0040681146FFF74CBC002202214068FFF73A
:100ADC004FBC002340681A46FFF73ABC0422024B75
:100AEC005A60024A1A607047DC03002048100A085A
:100AFC00002340681A46FFF72BBC002202214068F5
:100B0C00FFF736BC002240681146FFF729BC0022D3
:100B1C0040681146FFF734BC002340681A4619465A
:100B2C00FFF736BC002340681A461946FFF738BC5D
:100B3C0000214068FFF75CBC00214068FFF760BCF7
:100B4C000022406881F00101FFF732BC00224068AE
:100B5C00FFF73EBC002240681146FFF741BC002263
:100B6C0040681146FFF72CBC70B515468EB0044694
:100B7C0008A8FFF7C7FD1122002103A800F04CF9CB
:100B8C000026284600F07EF90A4B009681B25B687D
:100B9C00284603AAFFF7B0FB30B131462046FFF7D9
:100BAC00D1FD20460EB070BD204603A9FFF7B8FD5D
:100BBC00F7E700BFDC030020024B034A1A60002257
:100BCC005A607047E403002084100A08024B9868AE
:100BDC0008B1FFF7CFBA7047F0030020172870B5A3
:100BEC00044601D9002070BDA0F10D03022B0BD9D6
:100BFC00012824D800F0D6F80021007CFFF72AFB4E
:100C0C0080F00100C0B2EEE7124E3178BFF35B8F7B
:100C1C0011F001050DD13046FFF73BFA48B12946DA
:100C2C000D48FFF71DFC3046FFF738FA0B4800F073
:100C3C00DFF8094B1878FFF727FB0028D2D1123CBC
:100C4C00012C05D800F064F8007CFFF7C3FAD7E755
:100C5C000120C8E7EC030020F0030020D90B0A08A0
:100C6C00172838B504460D460AD8FF2908D0FFF7D7
:100C7C00B5FF28B129462046BDE83840FFF742BAF7
:100C8C0038BD38B504460D46FFF744FAFF2810D09E
:100C9C00062804D84D2323FA00F0C30709D42046B4
:100CAC00FFF79CFF28B129462046BDE83840FFF7E6
:100CBC0039BA38BD10B50446FFF72CFA031FDBB266
:100CCC00012B08D92046FFF789FF20B12046BDE84B
:100CDC001040FFF72FBA002010BD704770B51425D7
:100CEC0004462A46002100F097F825808025074EFF
:100CFC00284631462581258200F078F8314660601F
:100D0C00284600F073F8E060204670BDB8100A0861
:100D1C0030B50E4D87B02978BFF35B8F11F001040D
:100D2C0011D12846FFF7B5F968B101A8FFF7D6FF36
:100D3C00214601AA0648FFF729FE2846FFF7AEF91F
:100D4C00044800F055F8024807B030BDFC03002001
:100D5C0000040020E70C0A08002307B51A461946C0
:100D6C0000930348FFF704FD03B05DF804FB00BFDC
:100D7C00180400207047000070B514232025084E7D
:100D8C0004460360314685600561284600F02EF864
:100D9C0031466060284600F029F8E060204670BDBE
:100DAC00B8100A0830B50E4D87B02978BFF35B8FA9
:100DBC0011F0010411D12846FFF76BF968B101A8B5
:100DCC00FFF7DAFF214601AA0648FFF71FFE284667
:100DDC00FFF764F9044800F00BF8024807B030BD87
:100DEC003004002034040020810D0A08FFF74DB9AF
:100DFC00002301461A46184600F04CB80A449142AA
:100E0C0000F1FF3300D1704710B511F8014B91423E
:100E1C0003F8014FF9D110BD03460244934200D1AF
:100E2C00704703F8011BF9E738B5104B04461D68F1
:100E3C00AB6BB3B91820FFF7F3FA0246A86320B9DD
:100E4C0042210B4B0B48FFF7FBFA0B490B4BC0E94C
:100E5C0000130B4B002183600B2383810120C2E91B
:100E6C0004010022AB6B1C615A6138BD08000020E4
:100E7C00B9100A08D0100A080E33CDAB34126DE647
:100E8C00ECDE0500034613F8012B002AFBD1181ADF
:100E9C00013870472DE9F843DFF8AC800646D8F8E6
:100EAC0000001F460D46914600F058F8274B1C6871
:100EBC0034B9274C1C60274B13B11B68C4F888301D
:100ECC0063681F2B07DDD8F8000000F049F84FF0DD
:100EDC00FF30BDE8F8835EB3D4F8880088B91E4BA8
:100EEC0023B9D8F8000000F03AF8F0E74FF484701A
:100EFC00FFF796FA0028F4D00023C0E94033C4F879
:100F0C00880001226368022E40F8239002FA03F253
:100F1C0000EB8301D0F8003143EA0203C0F8003142
:100F2C00C1F8807002BFD0F804311343C0F804310B
:100F3C006368D8F800005A1C0233626044F82350EE
:100F4C0000F00EF80020C4E76C000020D404002050
:100F5C0048040020000000002D040A087047704768
:100F6C00704700001D000A085D000A0885000A0889
:100F7C0089000A08000000006170700025592D25B9
:100F8C006D2D25645425483A254D3A2553257A0074
:100F9C0061736374696D650000000000000000005F
:100FAC00CF060A08CD060A0801070A08000000004F
:100FBC00000000009B070A0801080A08D9070A0864
:100FCC00B1040A08CB070A089D070A08AD070A08EE
:100FDC00FB070A08BD070A0895070A08000000006D
:100FEC000000000021090A0889090A0865090A0895
:100FFC00B1040A0835090A0851090A0843090A0804
:10100C005F090A0823090A0827090A0800000000DA
:10101C0000000000C1090A080B0A0A08E3090A08C3
:10102C00C3090A08EB090A08F3090A08FB090A08AC
:10103C00030A0A080000000000000000DF0A0A088A
:10104C00D50A0A08CB0A0A083D0A0A08BF0A0A0888
:10105C00B30A0A083D0B0A08450B0A08A70A0A0836
:10106C009F0A0A08950A0A088B0A0A08470A0A08FE
:10107C000000000000000000FD0A0A08070B0A0827
:10108C00110B0A081B0B0A08250B0A08310B0A085E
:10109C003D0B0A08450B0A084D0B0A08590B0A08A8
:1010AC00610B0A086B0B0A08750B0A0800524545C0
:1010BC004E54206D616C6C6F632073756363656552
:1010CC00646564002F6D6E742F776F726B73706133
:1010DC0063652F776F726B73706163652F47434342
:1010EC002D31302D706970656C696E652F6A656E77
:1010FC006B696E732D4743432D31302D70697065CC
:10110C006C696E652D34385F3230323031313234A7
:10111C005F313630363138303634312F7372632FBD
:10112C006E65776C69622F6E65776C69622F6C697E
:10113C0062632F7374646C69622F72616E642E63C8
:10114C000000000009010A088D040A083D050A0880
:10115C004D050A0861050A08E90A0A08C50B0A08C0
:04116C00650D0A08FB
:04117000000000007B
:10117400020000009C0F0A080C0000200000000080
:10118400000000000000000000000000000000005B
:10119400000000000000000000000000000000004B
:1011A400000000000000000000000000000000003B
:1011B400000000000000000000000000000000002B
:1011C400000000000000000000000000000000001B
:1011D400000000000000000000000000D80400200F
:1011E400FFFFFFFF00000102030405060708090AC8
:1011F4000B0C0D0E0F101112131415161718191AC3
:081204001B1C1D1E1F20280009
:04120C0078563412CA
:04000005080A001CC9
:00000001FF
