:02000002B0004C
:1040000000400B00C4570B00000006000C00050226
:0840100004016810000000002B
:04401800A4540B00A1
:10401C0009480A49884208B505D0094A824202D0AB
:10402C00121A01F087F90748074A0021121A01F009
:10403C008FF9014808BD00BF28E6032028570B0064
:10404C009CE603209CE60320EDE7032070B5074EA9
:10405C00074C00F0C9FDA41BA4080025AC4200D1FC
:10406C0070BD56F8043B98470135F7E7D4560B0062
:10407C00FC560B0000F014B808B500F017F8BDE8BA
:10408C00084000F069BD00F05DBC00F063BC007836
:10409C00B0FA80F0400970470123037070470000AC
:1040AC00014800F076B800BFA0E60320FF22F8B567
:1040BC001146002000F095FA0022074611465020C8
:1040CC0000F08FFA0522054632213C2000F089FAD7
:1040DC00174C06463A462046002100F03FFA2A4685
:1040EC002046012100F03AFA32460221204600F027
:1040FC0035FA204600F086F84FF47A7000F000FD97
:10410C003A462046002100F029FA32462046012189
:10411C0000F024FA2A462046022100F01FFA20461D
:10412C0000F070F8BDE8F8404FF47A7000F0E8BC8D
:10413C00A0E60320044B054A05491B781278098830
:10414C00044800F04DB800BF9CE603202CE6032089
:10415C0028E60320A0E6032038B50446C0680D46C7
:10416C0008B100F0F7FBA379062B0CBF0420032049
:10417C0010FB05F080B2A08000F0E4FBE06028B1F9
:10418C00A288002101F0E4F8658038BDA080608031
:10419C00FBE710B504460121C07901F019F8E0796C
:1041AC00002101F026F80123237010BD37B50378E8
:1041BC0005460C461BB1C079002101F009F82B789B
:1041CC00EC715BB1A0B20121019001F001F80198F2
:1041DC00002103B0BDE8304001F00BB803B030BD96
:1041EC0070B50025044616468371C0E90355057069
:1041FC000572FFF7B1FF20463146FFF7D7FF204687
:10420C0070BD0000C368002B00F0A4812DE9F04FB5
:10421C008379023BDBB2042B9CBFBF4A52F823408C
:10422C0085B0054688BF322400F028FA2B69C01AE5
:10423C00A042F9D3B94CAE88D4F800351BB9D4F8E8
:10424C006035002B7EDBB64CD4F8003523B9D4F89E
:10425C006035002BC0F26E81B24CD4F80035002BC7
:10426C0000F04481EB79B04AB04C1268190102EBB2
:10427C000313575CAE495B78D1F8FC2042F0807296
:10428C00C1F8FC20226803F01F0343EA47130127FF
:10429C003A432260A988D5F80C80D4F804909F404A
:1042AC00002944D04FF0000E72464FF0A04118F890
:1042BC0001CB0820802663689B1A462BFBD96268C9
:1042CC00D1F808351CEA060F43EA0703C1F8083594
:1042DC002FD063689B1A282BFBD9D1F80C350138E9
:1042EC0043EA07034FEA5606C1F80C35E3D1AB8815
:1042FC000EF1010E1FFA8EFE7345D8D84FF43071B3
:10430C0003FB01F163689B1A462BFBD96368A3EB93
:10431C0009098945C0F0E4804FF4967000F0A6F9C5
:10432C00A988D5F80C80D4F804900029BAD10A4693
:10433C00E8E763689B1A112BCFD863689B1A112B83
:10434C00F7D9CAE7D4F86435002BBFF67CAFD4F8A4
:10435C006835002BBFF677AFD4F86C35002BBFF661
:10436C0072AF3601331D1846009300F0EBFA0028AB
:10437C003FF478AFAB88002B00F0ED80EA68013B8E
:10438C0012FA83F702F1FF3E002348F2060248F2CC
:10439C000D011EF801CF1CF0800F0CBF93468B460D
:1043AC001CF0400F0CBF16460E461CF0200F0CBF25
:1043BC009046884603F10109CDF80880019603F177
:1043CC0002081FFA89F9019E20F813B01FFA88F829
:1043DC0020F81960029E20F8186003F103081CF005
:1043EC00100F1FFA88F80CBF93468B4620F818B0B4
:1043FC0003F104081CF0080F1FFA88F80CBF934651
:10440C008B4620F818B003F105081CF0040F1FFAB6
:10441C0088F80CBF93468B4620F818B003F1080AB5
:10442C0003F1060807339BB21CF0020F1FFA88F841
:10443C000CBF93468B46CDF80CA01CF0010F20F856
:10444C0018B015BF20F8131020F813201FFA8AF3A8
:10445C00BDF80C3077459CD1591C023389B29BB204
:10446C0049005B004FF400474752009AC7522E4B4D
:10447C0056081F6800221423C4F80425C4F80C2520
:10448C00C4F80835C4F81425C4F81025C4F8200560
:10449C00C4F82465C4F82825C4F82C25EB7907EB5F
:1044AC00031C1B010121FE5C9CF8013003F01F036F
:1044BC0043EA4613C4F86035C4F80015C4F810215B
:1044CC00A160D4F81031002BFBD000234FF0FF3249
:1044DC00C4F81031C4F80035C4F8602500F03AFA7D
:1044EC0000F0CCF8286105B0BDE8F08FD4F8603549
:1044FC00002BBFF6B7AED4F86435002BBFF6B2AEC6
:10450C00D4F86835002BBFF6ADAED4F86C35002B63
:10451C00BFF6A8AE25E700BFB8540B0000C00140A1
:10452C000010024000200240B4E60320001000E01E
:10453C0000ED00E0D4F86435002BBFF68DAED4F856
:10454C006835002BBFF688AED4F86C35002BBFF65F
:10455C0083AE06E770470423022183E743888B422E
:10456C00F0B52DD9067AC2F30743C2F30724D5B2AE
:10457C003EB1734374437543C3F30723C4F3072459
:10458C002D0A90F806C0C768BCF1060F0CBF0426B4
:10459C0003264E43ACF1020CB919BCF1060F1DD821
:1045AC00DFE80CF0041C08040F040400BC554B702D
:1045BC008D7005E0FE2B28BFFE23BB554D708C7013
:1045CC00F0BDBB554C708D70037A120E13B9D2B27C
:1045DC00CA70F5E75A43C2F30722F9E7BB554C7092
:1045EC00E6E742EA012141EA0040704708B500F0D5
:1045FC0015F8014B186008BDB4E6032008B5024B52
:10460C001B689B68019308BD6802030008B5024B48
:10461C001B68DB68019308BD6802030008B5024BF8
:10462C001B681B68019308BD2C02030008B5024BE4
:10463C001B689B68019308BD2C02030008B5024B54
:10464C001B68DB68019308BD2C02030008B5024B04
:10465C001B681B69019308BD2C02030008B5024BB3
:10466C001B685B68019308BD1802030008B5024B78
:10467C001B68DB68019308BD1802030008B5024BE8
:10468C001B681B69019308BD1802030008B5024B97
:10469C001B685B69019308BD1802030008B5024B47
:1046AC001B685B6C019308BD4802030008B5024B04
:1046BC001B685B69019308BD6402030008B5024BDB
:1046CC001B68DB68019308BD3C02030008B5024B74
:1046DC001B681B69019308BD3C02030008B5024B23
:1046EC001B685B69019308BD3C02030008B5024BD3
:1046FC001B689B69019308BD3C02030008B5024B83
:10470C001B68DB69019308BD3C02030008B5024B32
:10471C001B681B6A019308BD3C02030008B5024BE1
:10472C001B689B6A019308BD3C02030008B5024B51
:10473C001B681B6C019308BD3C02030008B5024BBF
:10474C001B681B6A019308BD2802030008B5024BC5
:10475C001B685B6A019308BD2802030008B5024B75
:10476C001B689B6A019308BD2802030008B5024B25
:10477C001B68DB6A019308BD2802030008B5024BD5
:10478C001B681B6B019308BD2802030008B5024B84
:10479C001B685B6B019308BD2802030008B5024B34
:1047AC001B681B6C019308BD2802030008B5024B63
:1047BC001B68DB69019308BD3002030008B5024B8E
:1047CC001B681B6A019308BD3002030008B5024B3D
:1047DC001B681B68019308BD4C02030008B5024B13
:1047EC001B681B69019308BD4C02030008B5024B02
:1047FC001B685B69019308BD4C02030008B5024BB2
:10480C001B689B69019308BD4C02030008B5024B61
:10481C001B68DB69019308BD4C02030008B5024B11
:10482C001B681B6A019308BD4C02030008B5024BC0
:10483C001B685B68019308BD2002030008B5024B9E
:10484C001B685B69019308BD2002030008B5034B8C
:10485C001B68D3F88830019308BD000020020300C8
:10486C0008B5034B1B68D3F89430019308BD0000C6
:10487C002002030008B5024B1B685B68019308BD5E
:10488C004002030008B5024B1B689B68019308BDEE
:10489C004002030008B5024B1B68DB68019308BD9E
:1048AC004002030008B5024B1B681B69019308BD4D
:1048BC004002030008B5024B1B685B69019308BDFD
:1048CC004002030008B5024B1B689B69019308BDAD
:1048DC004002030008B5024B1B68DB69019308BD5D
:1048EC004002030008B5024B1B681B6A019308BD0C
:1048FC004002030008B5024B1B681B6B019308BDFB
:10490C004002030008B5024B1B685B6B019308BDAA
:10491C004002030008B5024B1B681B6C019308BDD9
:10492C004002030008B5024B1B685B6C019308BD89
:10493C004002030008B5024B1B68DB6B019308BDFA
:10494C004402030008B5024B1B681B68019308BDA9
:10495C001C02030008B5024B1B685B68019308BD81
:10496C001C02030008B5024B1B681B6C019308BDAD
:10497C001C02030008B5024B1B685B6C019308BD5D
:10498C001C020300002240681146FFF7ABBF002257
:10499C0040681146FFF7B6BF40680022FFF7AABF78
:1049AC004068002281F00101FFF794BF00234068AA
:1049BC001A461946FFF786BF002340681A46194667
:1049CC00FFF778BF002240681146FFF76BBF00224B
:1049DC0040681146FFF756BF406800220221FFF7DE
:1049EC0059BF002340681A46FFF744BF024B03220D
:1049FC005A60024A1A607047B8E60320D4540B0080
:104A0C0010B5044608462170FFF7D0FE0023636002
:104A1C00204610BD054B02221A60054B054A9A60D0
:104A2C000020C3E90000FFF701BF00BFCCE6032064
:104A3C00C0E603200000FFFF024800230360FFF7DD
:104A4C002DBE00BFD0E60320F8B506460D468F18E4
:104A5C000024BD420CD0336815F8011B9B6830460E
:104A6C009847031E01DB1C44F3E7002C08BF1C46CF
:104A7C002046F8BD13B50446084659B1019100F023
:104A8C009DFC23680199DB680246204602B0BDE814
:104A9C001040184702B010BD03689B68184730B52A
:104AAC008BB00023012A8DF8243098BF0A2209AC60
:104ABC000D46B1FBF2F101FB125303F0FF03092B7E
:104ACC0094BF30333733DBB2AA4204F8013DEFD93F
:104ADC002146FFF7CFFF0BB030BD0000014B024A5F
:104AEC001A607047D4E6032008550B00024B1A6875
:104AFC00024B1A60704700BF30E60320D8E6032053
:104B0C000021FFF79BBE0000014B00229A6070470A
:104B1C00DCE60320014B1860704700BF34E603202D
:104B2C0008B50B4B43B100F063F903681B69984758
:104B3C00002801DDAFF30080064B43B100F08EFB83
:104B4C0003681B699847002801DDAFF3008008BD9E
:104B5C00000000000000000008B5FFF7E1FFFFF7C0
:104B6C0095FD014B186008BD40E703200548064A37
:104B7C00064908B5121A00F0DDFB054B054A1A6010
:104B8C0008BD00BF00F4032004F4032024570B00DD
:104B9C0000F403201E1C279A07B5002300931A4625
:104BAC006FF07701FFF75CFE03B05DF804FB0000CB
:104BBC0007B543880A2B08D0502B0BD1094B1B6827
:104BCC004BB103B05DF804EB1847FFF7E5FF03B0FA
:104BDC005DF804FB002300931A466FF07701FFF792
:104BEC003FFEF4E7F0E6032010B512480021FFF772
:104BFC00C1FE114B1A68114B9A42114B0CBF01228A
:104C0C0000221A7001D0FFF7B1FFFFF727FD044611
:104C1C0000F0A6FB0B4B13B12046AFF30080002134
:104C2C000848FFF787FEBDE8104007480021FFF752
:104C3C000DBE00BF214B0B0000F403201E1C279A55
:104C4C00ECE6032000000000BD4B0B00704710B5D4
:104C5C0018210446FFF719FA204610BDF0B5037D64
:104C6C00062B8DB00E4600F104074FF0000412D055
:104C7C0000F1080515F8011D0A223046FFF70FFF59
:104C8C00AF42044419D0002CF4D02E213046FFF74B
:104C9C0003FF0444EEE72F236A4639460A208DF8B9
:104CAC000040FFF703FD684600F088FB33680246BE
:104CBC00DB68694630469847044620460DB0F0BD87
:104CCC0010B5054B0446112240F8043B002100F0BE
:104CDC003FFB204610BD00BF30550B000346074A72
:104CEC0010B543F8042B01F1100251F8044B43F8B2
:104CFC00044B9142F9D10A781A7010BD30550B0053
:104D0C0010B59DF8084044EA032343EA024242EA04
:104D1C00016104234160037510BD000007B5064B0B
:104D2C000360CB7800938B784A780978FFF7E8FF1B
:104D3C0003B05DF804FB00BF30550B0041747047A5
:104D4C007047704708B50021007CFFF757FD40EA1B
:104D5C00E07008BD08B50121007CFFF74FFD40EA6B
:104D6C00E07008BD08B5007CFFF740FD20EAE0705C
:104D7C0008BD08B5007CFFF731FD20EAE07008BDE6
:104D8C0013B50446007C0191FFF730FD0028019912
:104D9C0001DC607C20B1207CFFF738FD20EAE0705C
:104DAC0002B010BD007CFFF739BD10B514210446CC
:104DBC00FFF76BF9204610BD10B54FF47A7304461B
:104DCC0008460021C4E90113044B2360012320741D
:104DDC0063741146FFF7FAFC204610BD44550B00D6
:104DEC0010B514220446002100F0B2FA204610BD82
:104DFC0010B50F4C88B003A8FFF7F2FF2178BFF372
:104E0C005B8F11F001010FD120460191FFF73FF9A3
:104E1C00019948B103AA0748FFF7CEFF2046FFF7D8
:104E2C003BF9054800F080FA024808B010BD00BFFD
:104E3C00F4E60320F8E603204D4D0B007047417457
:104E4C00704708B5007CFFF769FC20EAE07008BDEC
:104E5C0008B5007CFFF73AFC20EAE07008BD08B505
:104E6C00007CFFF743FC40EAE07008BD08B5007C0D
:104E7C00FFF734FC40EAE07008BD007CFFF73EBC55
:104E8C0037B5457C04462DB1207C03B0BDE83040DD
:104E9C00FFF714BC007C0191FFF740FC002801993E
:104EAC00F2DC284603B030BD10B514210446FFF7E0
:104EBC00ECF8204610BD000010B54FF47A73044690
:104ECC00084611460022C4E90123044B2360012348
:104EDC0020746374FFF72AFC204610BD74550B0038
:104EEC007047F8B5064615460C468F18BC4206D0DE
:104EFC00336814F8011B9B6830469847F6E7284640
:104F0C00F8BD007C0022FFF719BC007C0021FFF7E4
:104F1C001DBC007C0021FFF721BC007C0021FFF7A9
:104F2C0025BC007C0021FFF729BC10B514210446D8
:104F3C00FFF7ABF8204610BD38B5044615464FF4C4
:104F4C007A730022C4E90123094B217408462360BB
:104F5C002946FFF723FCBF3008D16B69DB0705D569
:104F6C006868FFF7F7FCE868FFF7F4FC204638BDEB
:104F7C00A4550B00002240681146FFF793BC002299
:104F8C0040681146FFF7AEBC002240681146FFF79F
:104F9C00B9BC40680022FFF7ADBC4068002281F02C
:104FAC000101FFF797BC002340681A461946FFF72A
:104FBC0089BC002340681A461946FFF77BBC0022C7
:104FCC0040681146FFF75EBC406800220221FFF7E3
:104FDC0061BC002340681A46FFF74CBC024B04220C
:104FEC005A60024A1A6070470CE70320CC550B003C
:104FFC00002340681A46FFF73DBC4068002202219E
:10500C00FFF748BC002240681146FFF73BBC00226A
:10501C0040681146FFF746BC002340681A46194603
:10502C00FFF748BC002340681A461946FFF74ABCF4
:10503C0040680021FFF76EBC40680021FFF772BC8E
:10504C004068002281F00101FFF744BC4068002257
:10505C00FFF750BC002240681146FFF753BC0022FA
:10506C0040681146FFF73EBC2DE9F04395B014465D
:10507C000D460746FFF724FE00211C220DA80091C7
:10508C0000F066F940230C9320466B460CAA0021D5
:10509C00FFF7BCFA044600284BD102460121686890
:1050AC00FFF700FC0221804622466868FFF7FAFBF6
:1050BC00009E81462146002E3BD0002939D17368D1
:1050CC00022B03D00A2B11D0F669F4E7B8F1000FCC
:1050DC00FAD0716906A8043107ADFFF71FFE0FCD9A
:1050EC003C1D0FC42B6823704146EDE7B9F1000F4E
:1050FC00EAD07469102201A800F02AF906238DF871
:10510C00143001AD04F108031834186859682A46A4
:10511C0003C20833A3421546F7D101A906A807AD6F
:10512C00FFF7DCFD0FCD3C1D0FC42B6823704946E7
:10513C00CAE70098FFF762FA384615B0BDE8F0836D
:10514C00024B034A1A6000225A60704714E703208E
:10515C0008560B00232813B502D9002002B010BD4D
:10516C00A0F10B03022B1AD8174C2178BFF35B8FDD
:10517C0011F001010BD120460191FEF788FF019936
:10518C0028B11248FFF73CFC2046FEF785FF0F4B79
:10519C001878FFF713FB0028DFD10120DEE7012888
:1051AC0009D800F09BF80021007CFFF7EFFA80F0A3
:1051BC000100C0B2D2E709380128EED800F04EF851
:1051CC00007CFFF7A3FAF2E71CE7032020E703209B
:1051DC00232838B504460D460AD8FF2908D0FFF716
:1051EC00B9FF28B129462046BDE83840FFF71EBA62
:1051FC0038BD38B504460D46FFF720FAFF2810D00D
:10520C00062804D84D2323FA00F0C30709D42046FE
:10521C00FFF7A0FF28B129462046BDE83840FFF72C
:10522C0015BA38BD7047000038B5044614252A4617
:10523C00002100F08DF8258040250749258128465E
:10524C00258200F06FF804496060284600F06AF887
:10525C00E060204638BD00BF3C560B0030B50E4D0B
:10526C002978BFF35B8F11F0010487B011D1284668
:10527C00FEF70DFF68B101A8FFF7D6FF01AA214682
:10528C000648FFF719FE2846FEF706FF044800F013
:10529C004BF8024807B030BD28E703202CE7032069
:1052AC0031520B007047000038B50A4B03600123E4
:1052BC00044643610849202000F034F82025606042
:1052CC000549A560284600F02DF8C4E903052046E1
:1052DC0038BD00BF180001003C560B0030B50E4D18
:1052EC002978BFF35B8F11F0010487B011D12846E8
:1052FC00FEF7CDFE68B16846FFF7D6FF6A46214639
:10530C000648FFF719FE2846FEF7C6FE044800F0D3
:10531C000BF8024807B030BD44E7032048E70320F0
:10532C00B1520B00FEF7AFBE002301461A461846D9
:10533C0000F04CB80A44914200F1FF3300D17047A1
:10534C0010B511F8014B03F8014F9142F9D110BD82
:10535C0002440346934200D1704703F8011BF9E75E
:10536C0038B5104B1D68AB6B0446B3B91820FFF76A
:10537C00E9FA0246A86320B90B4B0C484221FFF70F
:10538C00F1FA0B490B4BC0E900130B4B83600B2359
:10539C00838100210120C2E90401AB6B00221C6156
:1053AC005A6138BD34E603203D560B0054560B00B1
:1053BC000E33CDAB34126DE6ECDE0500034613F86C
:1053CC00012B002AFBD1181A013870472DE9F8433C
:1053DC00DFF8B8800646D8F800001F460D46914607
:1053EC0000F056F8254B1C6834B9254C1C60254B35
:1053FC0013B11B68C4F8883063681F2B07DDD8F81D
:10540C00000000F047F84FF0FF30BDE8F8834EB3D2
:10541C00D4F8880088B91C4B23B9D8F8000000F0E8
:10542C0038F8F0E74FF48470FFF78CFA0028F4D0CA
:10543C000023C0E94033C4F88800636840F8239027
:10544C0001229A4000EB8301D0F800311343C0F8DD
:10545C000031022EC1F8807002BFD0F80431134322
:10546C00C0F804316368D8F800005A1C023362603B
:10547C0044F8235000F00EF80020C6E7E8E70320BC
:10548C005CE703200000000051490B0098E6032064
:10549C0070477047704700001D400B0059400B00CF
:1054AC0081400B0085400B00000000002C01000027
:1054BC0018000000F40100002C0100005000000056
:1054CC000000000000000000EF490B00E5490B0054
:1054DC00DB490B00D1490B00C5490B00B9490B0046
:1054EC003D500B0045500B00AD490B00A5490B007E
:1054FC009B490B0091490B0075500B0061707000BB
:10550C0025592D256D2D25645425483A254D3A25D0
:10551C0053257A0061736374696D650000000000A7
:10552C0000000000694C0B00594C0B005B4C0B004D
:10553C0000000000000000004F4D0B00B74D0B00A9
:10554C008D4D0B00554A0B007F4D0B00514D0B0040
:10555C00614D0B00B14D0B00714D0B00494D0B0013
:10556C000000000000000000494E0B00B54E0B007F
:10557C008D4E0B00554A0B005D4E0B00794E0B0007
:10558C006B4E0B00874E0B004B4E0B004F4E0B001F
:10559C000000000000000000ED4E0B00374F0B0028
:1055AC000F4F0B00EF4E0B00174F0B001F4F0B0054
:1055BC00274F0B002F4F0B000000000000000000D5
:1055CC00DF4F0B00D54F0B00CB4F0B00814F0B0067
:1055DC00BF4F0B00B34F0B003D500B0045500B0061
:1055EC00A74F0B009F4F0B00954F0B008B4F0B00E1
:1055FC0075500B000000000000000000FD4F0B0078
:10560C0007500B0011500B001B500B0025500B00CA
:10561C0031500B003D500B0045500B004D500B0012
:10562C0059500B0061500B006B500B0075500B0068
:10563C00005245454E54206D616C6C6F6320737540
:10564C0063636565646564002F6D6E742F776F728C
:10565C006B73706163652F776F726B7370616365C9
:10566C002F4743432D31302D706970656C696E6521
:10567C002F6A656E6B696E732D4743432D31302D48
:10568C00706970656C696E652D34385F32303230FC
:10569C00313132345F313630363138303634312FA7
:1056AC007372632F6E65776C69622F6E65776C69A8
:1056BC00622F6C6962632F7374646C69622F726100
:1056CC006E642E630000000041410B00F9450B0095
:1056DC00F9490B00214A0B00454A0B00E94A0B0023
:1056EC00F94A0B00154B0B00E94F0B004D510B0009
:0456FC0000000000AA
:10570000040000001400000003000000474E550094
:10571000B845B07116340A6EC1215DCAF11C402D26
:04572000EE09475DEA
:045724000000000081
:10572800030000000400000020550B0038E60320A9
:105738000000000000000000000000000000000061
:105748000000000000000000000000000000000051
:105758000000000000000000000000000000000041
:105768000000000000000000000000000000000031
:105778000000000000000000000000000000000021
:105788000000000000000000000000000000000011
:04579800ECE7032017
:10579C00FFFFFFFF00000102030405060708090ACA
:1057AC000B0C0D0E0F101112131415161718191AC5
:0857BC001B1C1D1E1F2028000C
:0457C40078563412CD
:04000003B000401CED
:00000001FF
