:02000004080AE8
:1000000000000A083C120A0800000600060005016C
:080010000402E50C00000000F1
:04001800A00F0A0823
:10001C0009480A4908B5884205D0094A824202D0EB
:10002C00121A00F003FF0748074A0021121A00F0C9
:10003C000BFF064808BD00BF00000020A4110A08F1
:10004C007000002070000020D9040020D90400208A
:10005C0070B500F017FB0025054E064CA41BA40838
:10006C00AC4200D170BD56F8043B98470135F7E718
:10007C0080110A08A0110A0800F014B808B500F0A5
:10008C0029F8BDE8084000F0B5BA00F0DDB900F081
:10009C00E3B90078B0FA80F040097047012303708F
:1000AC007047000008B5094B0321188800F0F0FDDB
:1000BC00074B0121188800F0EBFD00F0E5FBBDE8D3
:1000CC0008404FF4165100F0C5BB00BF00000020E3
:1000DC007400002008B5094B188800F003FE011EBF
:1000EC0014BF01220022064B18BF01211A70054BC8
:1000FC001888BDE8084000F0DCBD00BF00000020FF
:10010C00700000207400002008B5032000F010F9E6
:10011C00BDE80840032000F00BB9000008B5024B05
:10012C001B689B68019308BDB001060808B5024B1B
:10013C001B68DB68019308BDB001060808B5024BCB
:10014C001B681B69019308BDB001060808B5024B7A
:10015C001B685B69019308BDB001060808B5024B2A
:10016C001B685B68019308BD9C01060808B5024B2F
:10017C001B685B69019308BD9C01060808B5024B1E
:10018C001B685B6C019308BDD001060808B5024BD7
:10019C001B689B6C019308BDD001060808B5024B87
:1001AC001B685B6A019308BDC401060808B5024BC5
:1001BC001B689B6A019308BDC401060808B5024B75
:1001CC001B68DB6A019308BDC401060808B5024B25
:1001DC001B681B6B019308BDC401060808B5024BD4
:1001EC001B685B6B019308BDC401060808B5024B84
:1001FC001B689B6B019308BDC401060808B5024B34
:10020C001B681B6C019308BDC401060808B5024BA2
:10021C001B681B6E019308BDC401060808B5024B90
:10022C001B681B6E019308BDAC01060808B5024B98
:10023C001B685B6E019308BDAC01060808B5024B48
:10024C001B689B6E019308BDAC01060808B5024BF8
:10025C001B68DB6E019308BDAC01060808B5024BA8
:10026C001B681B6F019308BDAC01060808B5024B57
:10027C001B685B6F019308BDAC01060808B5034B06
:10028C001B68D3F88030019308BD0000AC01060850
:10029C0008B5024B1B68DB69019308BDB401060865
:1002AC0008B5024B1B681B6A019308BDB401060814
:1002BC0008B5024B1B681B68019308BDD8010608E2
:1002CC0008B5024B1B685B68019308BDD801060892
:1002DC0008B5024B1B681B69019308BDD8010608C1
:1002EC0008B5024B1B685B69019308BDD801060871
:1002FC0008B5024B1B689B69019308BDD801060821
:10030C0008B5024B1B68DB69019308BDD8010608D0
:10031C0008B5024B1B681B6A019308BDD80106087F
:10032C0008B5024B1B689B6C019308BDC001060805
:10033C0008B5024B1B681B6D019308BDC001060874
:10034C0008B5024B1B685B68019308BDA401060845
:10035C0008B5034B1B68D3F89030019308BD00001F
:10036C00A401060808B5034B1B68D3F89C30019315
:10037C0008BD0000A401060808B5024B1B685B68A9
:10038C00019308BDC801060808B5024B1B689B68A1
:10039C00019308BDC801060808B5024B1B68DB6851
:1003AC00019308BDC801060808B5024B1B681B6900
:1003BC00019308BDC801060808B5024B1B685B69B0
:1003CC00019308BDC801060808B5024B1B689B6960
:1003DC00019308BDC801060808B5024B1B68DB6910
:1003EC00019308BDC801060808B5024B1B681B6ABF
:1003FC00019308BDC801060808B5024B1B681B6BAE
:10040C00019308BDC801060808B5024B1B685B6B5D
:10041C00019308BDC801060808B5024B1B681B6C8C
:10042C00019308BDC801060808B5024B1B685B6C3C
:10043C00019308BDC801060808B5024B1B68DB6BAD
:10044C00019308BDCC01060808B5024B1B681B685C
:10045C00019308BDA001060808B5024B1B685B6838
:10046C00019308BDA001060808B5024B1B681B6C64
:10047C00019308BDA001060808B5024B1B685B6C14
:10048C00019308BDA001060870B5002604460D4670
:10049C0040F8086FFFF772FE28462570FFF7F8FE4C
:1004AC002046666070BD000002220020044B1A60DA
:1004BC00044B054AC3E900009A60FFF741BF00BF37
:1004CC0084000020780000200000FFFFF8B50646ED
:1004DC000D4600248F18BD420CD0336830469B6803
:1004EC0015F8011B9847031E01DB1C44F3E7002C95
:1004FC0008BF1C462046F8BD70B505460C4608469C
:10050C0049B100F0D7FC2B68024621462846BDE8CD
:10051C007040DB68184770BD03689B681847002360
:10052C00012A98BF0A2230B58BB00C468DF82430C6
:10053C0009A92546B4FBF2F404FB1253DBB2092BD8
:10054C0094BF30333733DBB2AA4201F8013DF0D906
:10055C00FFF7D2FF0BB030BD014B024A1A60704757
:10056C0088000020B40F0A08024B1A68024B1A606C
:10057C00704700BF040000208C0000200022014BBB
:10058C009A60704790000020014B1860704700BFC4
:10059C000800002008B5134B43B100F075F903684F
:1005AC001B699847002801DDAFF300800E4B43B167
:1005BC0000F0C6FB03681B699847002801DDAFF308
:1005CC0000800A4B0BB1AFF30080094B43B100F034
:1005DC0095F903681B699847002801DDAFF300808B
:1005EC0008BD00BF0000000000000000000000007B
:1005FC000000000008B5FFF7CDFFFFF7B7FD014B7A
:10060C00186008BD140400200548064A08B5121AE3
:10061C00054900F00BFC054B054A1A6008BD00BFEC
:10062C000040024004400240A0110A080040024071
:10063C001E1C279A002307B51A466FF0770100930A
:10064C00FFF790FE03B05DF804FB000007B543888C
:10065C000A2B08D0502B0BD1094B1B684BB103B0A4
:10066C005DF804EB1847FFF7E5FF03B05DF804FBFA
:10067C0000231A466FF077010093FFF773FEF4E73F
:10068C00A4000020002110B51148FFF7F5FE114B16
:10069C001A68114B9A420CBF012200220F4B1A70A0
:1006AC0001D0FFF7B1FFFFF759FD044600F0D4FB72
:1006BC000B4B13B12046AFF3008000210848FFF725
:1006CC00BBFEBDE8104000210648FFF741BE00BF4D
:1006DC0095050A08004002401E1C279AA000002025
:1006EC000000000059060A087047F8B50E460024B1
:1006FC0000F10807051D17F8011D0A223046FFF707
:10070C000EFFAF42044401D12046F8BD002CF2D0BC
:10071C002E213046FFF700FF0444ECE710B50446E9
:10072C001821FFF7B4FC204610BD000010B504469C
:10073C00044B1122002140F8043B00F085FB2046BD
:10074C0010BD00BFDC0F0A080346074A10B543F87A
:10075C00042B01F1100251F8044B914243F8044B65
:10076C00F9D10A781A7010BDDC0F0A08024AC0E9E8
:10077C000021042202757047DC0F0A0810B59DF8A1
:10078C00084044EA0324042344EA024444EA016492
:10079C004460037510BD000013B5044C04609DF853
:1007AC0010400094FFF7EAFF02B010BDDC0F0A08FE
:1007BC00417470477047704708B50021007CFFF703
:1007CC0097FD40EAE07008BD08B50121007CFFF7F9
:1007DC008FFD40EAE07008BD08B5007CFFF780FD96
:1007EC0020EAE07008BD08B5007CFFF771FD20EA37
:1007FC00E07008BD38B50446007C0D46FFF770FD6F
:10080C00002801DC607C28B12946207CFFF778FDAC
:10081C0020EAE07038BD007CFFF77ABD10B50446C5
:10082C001421FFF734FC204610BD704710B54FF46F
:10083C007A73044608460021C4E90113044B207462
:10084C002360012311466374FFF732FD204610BD6F
:10085C00F00F0A080022007CFFF732BD10B50446E9
:10086C001422002100F0F0FA054B20466360054B82
:10087C00E36040F2011323818123238210BD00BF6A
:10088C00D8000020D901002030B50E4D87B001A84A
:10089C00FFF7E4FF2978BFF35B8F11F001040ED151
:1008AC002846FFF7F6FB50B1214601AA0648FFF790
:1008BC00BDFF2846FFF7F2FB044800F0B1FA0248EE
:1008CC0007B030BDA8000020B0000020C1070A0806
:1008DC0010B504461422002100F0B6FA054B204650
:1008EC006360054BE36040F2011323818123238273
:1008FC0010BD00BF5A0200205B03002010B50E4C47
:10090C0086B001A8FFF7E4FF2378BFF35B8FDB070A
:10091C000ED42046FFF7BDFB50B1012101AA0748B8
:10092C00FFF784FF2046FFF7B9FB054800F078FA83
:10093C00024806B010BD00BFAC000020C40000206F
:10094C0037080A0870474174704708B5007CFFF7F8
:10095C0055FC20EAE07008BD08B5007CFFF726FCCA
:10096C0020EAE07008BD08B5007CFFF72FFC40EAD8
:10097C00E07008BD08B5007CFFF720FC40EAE07091
:10098C0008BD007CFFF72ABC70B5467C04460D46BA
:10099C002EB12946207CBDE87040FFF7FFBB007CE0
:1009AC00FFF72CFC0028F4DC304670BD10B5044673
:1009BC001421FFF76CFB204610BD000010B54FF45E
:1009CC007A730446084611460022C4E90123044BFD
:1009DC002074236001236374FFF718FC204610BDBC
:1009EC0020100A087047F8B5064615460C468F18B5
:1009FC00BC4206D0336830469B6814F8011B9847FC
:100A0C00F6E72846F8BD0022007CFFF707BC002162
:100A1C00007CFFF70BBC0021007CFFF70FBC002112
:100A2C00007CFFF713BC0021007CFFF717BC10B54E
:100A3C0004461421FFF72BFB204610BD10B54FF4D4
:100A4C007A73044608460021C4E90113034B11468E
:100A5C0023602074FFF712FC204610BD50100A08CA
:100A6C00002240681146FFF79FBCF0B5154689B0CF
:100A7C0011220E460446002103A800F0E5F9284691
:100A8C0000F018FA002781B273682846009703AA71
:100A9C00FFF746FC30B139462046FFF767FE20468B
:100AAC0009B0F0BD204603A9FFF74EFEF7E7002280
:100ABC0040681146FFF798BC002240681146FFF7CA
:100ACC00A3BC00224068FFF797BC0022406881F06D
:100ADC000101FFF781BC002340681A461946FFF755
:100AEC0073BC002340681A461946FFF765BC002208
:100AFC0040681146FFF748BC002202214068FFF70E
:100B0C004BBC002340681A46FFF736BC0422024B4C
:100B1C005A60024A1A607047DC03002078100A08F9
:100B2C00002340681A46FFF727BC002202214068C8
:100B3C00FFF732BC002240681146FFF725BC0022AB
:100B4C0040681146FFF730BC002340681A4619462E
:100B5C00FFF732BC002340681A461946FFF734BC35
:100B6C0000214068FFF758BC00214068FFF75CBCCF
:100B7C000022406881F00101FFF72EBC0022406882
:100B8C00FFF73ABC002240681146FFF73DBC00223B
:100B9C0040681146FFF728BC70B515468EB0044668
:100BAC0008A8FFF7C3FD1122002103A800F04CF99F
:100BBC000026284600F07EF90A4B009681B25B684D
:100BCC00284603AAFFF7ACFB30B131462046FFF7AD
:100BDC00CDFD20460EB070BD204603A9FFF7B4FD35
:100BEC00F7E700BFDC030020024B034A1A60002227
:100BFC005A607047E4030020B4100A08024B98684E
:100C0C0008B1FFF7C3BA7047F0030020172870B57E
:100C1C00044601D9002070BDA0F10D03022B0BD9A5
:100C2C00012824D800F0D6F80021007CFFF71EFB29
:100C3C0080F00100C0B2EEE7124E3178BFF35B8F4B
:100C4C0011F001050DD13046FFF723FA48B12946C2
:100C5C000D48FFF719FC3046FFF720FA0B4800F05F
:100C6C00DFF8094B1878FFF71BFB0028D2D1123C98
:100C7C00012C05D800F064F8007CFFF7B7FAD7E731
:100C8C000120C8E7EC030020F0030020090C0A083F
:100C9C00172838B504460D460AD8FF2908D0FFF7A7
:100CAC00B5FF28B129462046BDE83840FFF736BAD3
:100CBC0038BD38B504460D46FFF738FAFF2810D07A
:100CCC00062804D84D2323FA00F0C30709D4204684
:100CDC00FFF79CFF28B129462046BDE83840FFF7B6
:100CEC002DBA38BD10B50446FFF720FA031FDBB24E
:100CFC00012B08D92046FFF789FF20B12046BDE81B
:100D0C001040FFF723BA002010BD704770B51425B2
:100D1C0004462A46002100F097F825808025074ECE
:100D2C00284631462581258200F078F831466060EE
:100D3C00284600F073F8E060204670BDE8100A0801
:100D4C0030B50E4D87B02978BFF35B8F11F00104DD
:100D5C0011D12846FFF79DF968B101A8FFF7D6FF1E
:100D6C00214601AA0648FFF729FE2846FFF796F907
:100D7C00044800F055F8024807B030BDFC030020D1
:100D8C0000040020170D0A08002307B51A4619465F
:100D9C0000930348FFF700FD03B05DF804FB00BFB0
:100DAC00180400207047000070B514232025084E4D
:100DBC0004460360314685600561284600F02EF834
:100DCC0031466060284600F029F8E060204670BD8E
:100DDC00E8100A0830B50E4D87B02978BFF35B8F49
:100DEC0011F0010411D12846FFF753F968B101A89D
:100DFC00FFF7DAFF214601AA0648FFF71FFE284637
:100E0C00FFF74CF9044800F00BF8024807B030BD6E
:100E1C003004002034040020B10D0A08FFF735B966
:100E2C00002301461A46184600F04CB80A44914279
:100E3C0000F1FF3300D1704710B511F8014B91420E
:100E4C0003F8014FF9D110BD03460244934200D17F
:100E5C00704703F8011BF9E738B5104B04461D68C1
:100E6C00AB6BB3B91820FFF7EFFA0246A86320B9B1
:100E7C0042210B4B0B48FFF7F7FA0B490B4BC0E920
:100E8C0000130B4B002183600B2383810120C2E9EB
:100E9C0004010022AB6B1C615A6138BD08000020B4
:100EAC00E9100A0800110A080E33CDAB34126DE6B6
:100EBC00ECDE0500034613F8012B002AFBD1181AAF
:100ECC00013870472DE9F843DFF8AC800646D8F8B6
:100EDC0000001F460D46914600F058F8274B1C6841
:100EEC0034B9274C1C60274B13B11B68C4F88830ED
:100EFC0063681F2B07DDD8F8000000F049F84FF0AD
:100F0C00FF30BDE8F8835EB3D4F8880088B91E4B77
:100F1C0023B9D8F8000000F03AF8F0E74FF48470E9
:100F2C00FFF792FA0028F4D00023C0E94033C4F84C
:100F3C00880001226368022E40F8239002FA03F223
:100F4C0000EB8301D0F8003143EA0203C0F8003112
:100F5C00C1F8807002BFD0F804311343C0F80431DB
:100F6C006368D8F800005A1C0233626044F82350BE
:100F7C0000F00EF80020C4E76C000020D404002020
:100F8C00480400200000000055040A087047704710
:100F9C00704700001D000A085D000A0885000A0859
:100FAC0089000A08000000006170700025592D2589
:100FBC006D2D25645425483A254D3A2553257A0044
:100FCC0061736374696D650000000000000000002F
:100FDC00F7060A08F5060A0829070A0800000000A7
:100FEC0000000000C3070A0829080A0801080A08BB
:100FFC00D9040A08F3070A08C5070A08D5070A081E
:10100C0023080A08E5070A08BD070A0800000000C3
:10101C000000000051090A08B9090A0895090A08D4
:10102C00D9040A0865090A0881090A0873090A081B
:10103C008F090A0853090A0857090A08000000001A
:10104C0000000000F1090A083B0A0A08130A0A0802
:10105C00F3090A081B0A0A08230A0A082B0A0A08B9
:10106C00330A0A0800000000000000000F0B0A08F9
:10107C00050B0A08FB0A0A086D0A0A08EF0A0A0897
:10108C00E30A0A086D0B0A08750B0A08D70A0A0846
:10109C00CF0A0A08C50A0A08BB0A0A08770A0A080E
:1010AC0000000000000000002D0B0A08370B0A0896
:1010BC00410B0A084B0B0A08550B0A08610B0A086E
:1010CC006D0B0A08750B0A087D0B0A08890B0A08B8
:1010DC00910B0A089B0B0A08A50B0A080052454500
:1010EC004E54206D616C6C6F632073756363656522
:1010FC00646564002F6D6E742F776F726B73706103
:10110C0063652F776F726B73706163652F47434311
:10111C002D31302D706970656C696E652F6A656E46
:10112C006B696E732D4743432D31302D706970659B
:10113C006C696E652D34385F323032303131323477
:10114C005F313630363138303634312F7372632F8D
:10115C006E65776C69622F6E65776C69622F6C694E
:10116C0062632F7374646C69622F72616E642E6398
:10117C000000000015010A08B5040A0865050A08F4
:10118C0075050A0889050A08190B0A08F50B0A08DF
:04119C00950D0A089B
:0411A000000000004B
:1011A40002000000CC0F0A080C0000200000000020
:1011B400000000000000000000000000000000002B
:1011C400000000000000000000000000000000001B
:1011D400000000000000000000000000000000000B
:1011E40000000000000000000000000000000000FB
:1011F40000000000000000000000000000000000EB
:10120400000000000000000000000000D8040020DE
:10121400FFFFFFFF00000102030405060708090A97
:101224000B0C0D0E0F101112131415161718191A92
:081234001B1C1D1E1F202800D9
:04123C00785634129A
:04000005080A001CC9
:00000001FF
