:02000004080AE8
:1000000000000A080C120A0800000600060005019C
:080010000402E50C00000000F1
:04001800700F0A0853
:10001C0009480A4908B5884205D0094A824202D0EB
:10002C00121A00F0EBFE0748074A0021121A00F0E2
:10003C00F3FE064808BD00BF0000002074110A083A
:10004C007000002070000020D5040020D504002092
:10005C0070B500F015FB0025054E064CA41BA4083A
:10006C00AC4200D170BD56F8043B98470135F7E718
:10007C0050110A0870110A0800F014B808B500F005
:10008C0023F8BDE8084000F0B3BA00F0D7B900F08F
:10009C00DDB90078B0FA80F0400970470123037095
:1000AC007047000008B5064B0121188800F0EAFDE6
:1000BC00044B01211888BDE8084000F0E3BD00BFE7
:1000CC00700000200000002038B50E4D0E4C288822
:1000DC00012100F0E8FD0121208800F0E4FD4FF43F
:1000EC00FA7000F045FA2888002100F0DCFD208829
:1000FC00002100F0D8FDBDE838404FF4FA7000F054
:10010C0037BA00BF700000200000002008B50320A3
:10011C0000F000F9BDE80840032000F0FBB8000037
:10012C0008B5024B1B689B68019308BDB00106081B
:10013C0008B5024B1B68DB68019308BDB0010608CB
:10014C0008B5024B1B681B69019308BDB00106087A
:10015C0008B5024B1B685B68019308BD9C0106083F
:10016C0008B5024B1B685B69019308BD9C0106082E
:10017C0008B5024B1B685B6C019308BDD0010608E7
:10018C0008B5024B1B689B6C019308BDD001060897
:10019C0008B5024B1B685B6A019308BDC4010608D5
:1001AC0008B5024B1B689B6A019308BDC401060885
:1001BC0008B5024B1B68DB6A019308BDC401060835
:1001CC0008B5024B1B681B6B019308BDC4010608E4
:1001DC0008B5024B1B685B6B019308BDC401060894
:1001EC0008B5024B1B689B6B019308BDC401060844
:1001FC0008B5024B1B681B6C019308BDC4010608B3
:10020C0008B5024B1B681B6E019308BDC4010608A0
:10021C0008B5024B1B681B6E019308BDAC010608A8
:10022C0008B5024B1B685B6E019308BDAC01060858
:10023C0008B5024B1B689B6E019308BDAC01060808
:10024C0008B5024B1B68DB6E019308BDAC010608B8
:10025C0008B5024B1B681B6F019308BDAC01060867
:10026C0008B5024B1B685B6F019308BDAC01060817
:10027C0008B5034B1B68D3F88030019308BD000010
:10028C00AC01060808B5024B1B68DB69019308BD7D
:10029C00B401060808B5024B1B681B6A019308BD24
:1002AC00B401060808B5024B1B681B68019308BD16
:1002BC00D801060808B5024B1B681B69019308BDE1
:1002CC00D801060808B5024B1B685B69019308BD91
:1002DC00D801060808B5024B1B689B69019308BD41
:1002EC00D801060808B5024B1B68DB69019308BDF1
:1002FC00D801060808B5024B1B681B6A019308BDA0
:10030C00D801060808B5024B1B689B6C019308BD0D
:10031C00C001060808B5024B1B681B6D019308BD94
:10032C00C001060808B5024B1B685B68019308BD49
:10033C00A401060808B5024B1B685B69019308BD54
:10034C00A401060808B5034B1B68D3F89030019341
:10035C0008BD0000A401060808B5034B1B68D3F8C0
:10036C009C30019308BD0000A401060808B5024B9F
:10037C001B685B68019308BDC801060808B5024BF1
:10038C001B689B68019308BDC801060808B5024BA1
:10039C001B68DB68019308BDC801060808B5024B51
:1003AC001B681B69019308BDC801060808B5024B00
:1003BC001B685B69019308BDC801060808B5024BB0
:1003CC001B689B69019308BDC801060808B5024B60
:1003DC001B68DB69019308BDC801060808B5024B10
:1003EC001B681B6A019308BDC801060808B5024BBF
:1003FC001B681B6B019308BDC801060808B5024BAE
:10040C001B685B6B019308BDC801060808B5024B5D
:10041C001B681B6C019308BDC801060808B5024B8C
:10042C001B685B6C019308BDC801060808B5024B3C
:10043C001B68DB6B019308BDCC01060808B5024BA9
:10044C001B681B68019308BDA001060808B5024B88
:10045C001B685B68019308BDA001060808B5024B38
:10046C001B681B6C019308BDA001060808B5024B64
:10047C001B685B6C019308BDA001060870B50026D3
:10048C0004460D4640F8086FFFF772FE28462570AB
:10049C00FFF7F8FE2046666070BD000002220020C7
:1004AC00044B1A60044B054AC3E900009A60FFF73D
:1004BC0039BF00BF80000020740000200000FFFF47
:1004CC00F8B506460D4600248F18BD420CD0336893
:1004DC0030469B6815F8011B9847031E01DB1C4432
:1004EC00F3E7002C08BF1C462046F8BD70B5054646
:1004FC000C46084649B100F0C5FC2B680246214663
:10050C002846BDE87040DB68184770BD03689B68DF
:10051C0018470023012A98BF0A2230B58BB00C462D
:10052C008DF8243009A92546B4FBF2F404FB1253D0
:10053C00DBB2092B94BF30333733DBB2AA4201F85C
:10054C00013DF0D9FFF7D2FF0BB030BD014B024A91
:10055C001A60704784000020840F0A08024B1A6846
:10056C00024B1A60704700BF040000208800002076
:10057C000021FFF7DFBE00000022014B9A6070479C
:10058C008C000020014B1860704700BF0800002051
:10059C0008B5134B43B100F071F903681B69984718
:1005AC00002801DDAFF300800E4B43B100F0B0FB2F
:1005BC0003681B699847002801DDAFF300800A4BE4
:1005CC000BB1AFF30080094B43B100F091F9036814
:1005DC001B699847002801DDAFF3008008BD00BF00
:1005EC0000000000000000000000000000000000FF
:1005FC0008B5FFF7CDFFFFF7B3FD014B186008BD41
:10060C00100400200548064A08B5121A054900F0E6
:10061C00F5FB054B054A1A6008BD00BF00400240BF
:10062C000440024070110A08004002401E1C279A28
:10063C00002307B51A466FF077010093FFF78CFE85
:10064C0003B05DF804FB000007B543880A2B08D003
:10065C00502B0BD1094B1B684BB103B05DF804EB6D
:10066C001847FFF7E5FF03B05DF804FB00231A46BB
:10067C006FF077010093FFF76FFEF4E7A000002006
:10068C00002110B51148FFF7F1FE114B1A68114B00
:10069C009A420CBF012200220F4B1A7001D0FFF7B7
:1006AC00B1FFFFF755FD044600F0BEFB0B4B13B139
:1006BC002046AFF3008000210848FFF7B7FEBDE8E5
:1006CC00104000210648FFF73DBE00BF91050A0807
:1006DC00004002401E1C279A9C00002000000000D5
:1006EC0055060A087047F8B50E46002400F10807B5
:1006FC00051D17F8011D0A223046FFF70AFFAF420D
:10070C00044401D12046F8BD002CF2D02E213046F5
:10071C00FFF7FCFE0444ECE710B504461821FFF784
:10072C00B6FC204610BD000010B50446044B112247
:10073C00002140F8043B00F06FFB204610BD00BFC9
:10074C00AC0F0A080346074A10B543F8042B01F115
:10075C00100251F8044B914243F8044BF9D10A783A
:10076C001A7010BDAC0F0A08024AC0E9002104221D
:10077C0002757047AC0F0A0810B59DF8084044EAA2
:10078C000324042344EA024444EA016444600375EC
:10079C0010BD000013B5044C04609DF8104000948B
:1007AC00FFF7EAFF02B010BDAC0F0A0841747047A6
:1007BC007047704708B50021007CFFF78BFD40EABD
:1007CC00E07008BD08B50121007CFFF783FD40EA0D
:1007DC00E07008BD08B5007CFFF774FD20EAE070FE
:1007EC0008BD08B5007CFFF765FD20EAE07008BD88
:1007FC0038B50446007C0D46FFF764FD002801DC8B
:10080C00607C28B12946207CFFF76CFD20EAE07063
:10081C0038BD007CFFF76EBD10B504461421FFF700
:10082C0036FC204610BD704710B54FF47A73044661
:10083C0008460021C4E90113044B207423600123F2
:10084C0011466374FFF72EFD204610BDC00F0A0839
:10085C0010B504461422002100F0DEFA054B2046A8
:10086C006360054BE36040F20113238181232382F3
:10087C0010BD00BFD4000020D501002030B50E4DB6
:10088C0087B001A8FFF7E4FF2978BFF35B8F11F065
:10089C0001040ED12846FFF7FCFB50B1214601AAFA
:1008AC000648FFF7C1FF2846FFF7F8FB044800F0A5
:1008BC009FFA024807B030BDA4000020AC00002015
:1008CC00BD070A0810B504461422002100F0A4FA52
:1008DC00054B20466360054BE36040F20113238116
:1008EC008123238210BD00BF560200205703002035
:1008FC0010B50E4C86B001A8FFF7E4FF2378BFF3C8
:10090C005B8FDB070ED42046FFF7C3FB50B10121F0
:10091C0001AA0748FFF788FF2046FFF7BFFB0548F1
:10092C0000F066FA024806B010BD00BFA800002017
:10093C00C000002033080A0870474174704708B59E
:10094C00007CFFF755FC20EAE07008BD08B5007C80
:10095C00FFF726FC20EAE07008BD08B5007CFFF725
:10096C002FFC40EAE07008BD08B5007CFFF720FCC6
:10097C0040EAE07008BD007CFFF72ABC70B5467CED
:10098C0004460D462EB12946207CBDE87040FFF789
:10099C00FFBB007CFFF72CFC0028F4DC304670BD5C
:1009AC0010B504461421FFF772FB204610BD000061
:1009BC0010B54FF47A730446084611460022C4E978
:1009CC000123044B2074236001236374FFF718FC8C
:1009DC00204610BDF00F0A087047F8B506461546BC
:1009EC000C468F18BC4206D0336830469B6814F80E
:1009FC00011B9847F6E72846F8BD0022007CFFF75C
:100A0C0007BC0021007CFFF70BBC0021007CFFF72A
:100A1C000FBC0021007CFFF713BC0021007CFFF70A
:100A2C0017BC10B504461421FFF731FB204610BD4E
:100A3C0010B54FF47A73044608460021C4E901133B
:100A4C00034B114623602074FFF712FC204610BDA7
:100A5C0020100A08002240681146FFF79FBCF0B531
:100A6C00154689B011220E460446002103A800F059
:100A7C00D3F9284600F006FA002781B2736828469D
:100A8C00009703AAFFF73EFC30B139462046FFF72A
:100A9C006BFE204609B0F0BD204603A9FFF752FEBD
:100AAC00F7E7002240681146FFF798BC0022406827
:100ABC001146FFF7A3BC00224068FFF797BC002249
:100ACC00406881F00101FFF781BC002340681A46A1
:100ADC001946FFF773BC002340681A461946FFF706
:100AEC0065BC002240681146FFF748BC0022022179
:100AFC004068FFF74BBC002340681A46FFF736BC32
:100B0C000422024B5A60024A1A607047D803002034
:100B1C0048100A08002340681A46FFF727BC002239
:100B2C0002214068FFF732BC002240681146FFF7F3
:100B3C0025BC002240681146FFF730BC00234068FA
:100B4C001A461946FFF732BC002340681A4619466C
:100B5C00FFF734BC00214068FFF758BC0021406807
:100B6C00FFF75CBC0022406881F00101FFF72EBC4E
:100B7C0000224068FFF73ABC002240681146FFF79C
:100B8C003DBC002240681146FFF728BC70B51546E5
:100B9C008EB0044608A8FFF7C7FD1122002103A858
:100BAC0000F03AF90026284600F06CF90A4B009642
:100BBC0081B25B68284603AAFFF7A4FB30B131462B
:100BCC002046FFF7D1FD20460EB070BD204603A98C
:100BDC00FFF7B8FDF7E700BFD8030020024B034A2C
:100BEC001A6000225A607047E003002084100A0843
:100BFC00024B986808B1FFF7C3BA7047EC030020AA
:100C0C00172870B5044601D9002070BDA0F10D0362
:100C1C00022B0BD9012824D800F0C4F80021007C49
:100C2C00FFF71EFB80F00100C0B2EEE7124E3178E8
:100C3C00BFF35B8F11F001050DD13046FFF729FA98
:100C4C0048B129460D48FFF719FC3046FFF726FA44
:100C5C000B4800F0CDF8094B1878FFF71BFB002868
:100C6C00D2D1123C012C05D800F052F8007CFFF7D1
:100C7C00B7FAD7E70120C8E7E8030020EC0300200F
:100C8C00FD0B0A08172838B504460D460AD8FF296B
:100C9C0008D0FFF7B5FF28B129462046BDE83840FB
:100CAC00FFF73EBA38BD38B504460D46FFF740FA9B
:100CBC00FF2810D0062804D84D2323FA00F0C307D0
:100CCC0009D42046FFF79CFF28B129462046BDE8F1
:100CDC003840FFF735BA38BD7047000070B51425A1
:100CEC0004462A46002100F097F825808025074EFF
:100CFC00284631462581258200F078F8314660601F
:100D0C00284600F073F8E060204670BDB8100A0861
:100D1C0030B50E4D87B02978BFF35B8F11F001040D
:100D2C0011D12846FFF7B5F968B101A8FFF7D6FF36
:100D3C00214601AA0648FFF73BFE2846FFF7AEF90D
:100D4C00044800F055F8024807B030BDF803002005
:100D5C00FC030020E50C0A08002307B51A461946C7
:100D6C0000930348FFF716FD03B05DF804FB00BFCA
:100D7C00140400207047000070B514232025084E81
:100D8C0004460360314685600561284600F02EF864
:100D9C0031466060284600F029F8E060204670BDBE
:100DAC00B8100A0830B50E4D87B02978BFF35B8FA9
:100DBC0011F0010411D12846FFF76BF968B101A8B5
:100DCC00FFF7DAFF214601AA0648FFF731FE284655
:100DDC00FFF764F9044800F00BF8024807B030BD87
:100DEC002C04002030040020810D0A08FFF74DB9B7
:100DFC00002301461A46184600F04CB80A449142AA
:100E0C0000F1FF3300D1704710B511F8014B91423E
:100E1C0003F8014FF9D110BD03460244934200D1AF
:100E2C00704703F8011BF9E738B5104B04461D68F1
:100E3C00AB6BB3B91820FFF701FB0246A86320B9CE
:100E4C0042210B4B0B48FFF709FB0B490B4BC0E93D
:100E5C0000130B4B002183600B2383810120C2E91B
:100E6C0004010022AB6B1C615A6138BD08000020E4
:100E7C00B9100A08D0100A080E33CDAB34126DE647
:100E8C00ECDE0500034613F8012B002AFBD1181ADF
:100E9C00013870472DE9F843DFF8AC800646D8F8E6
:100EAC0000001F460D46914600F058F8274B1C6871
:100EBC0034B9274C1C60274B13B11B68C4F888301D
:100ECC0063681F2B07DDD8F8000000F049F84FF0DD
:100EDC00FF30BDE8F8835EB3D4F8880088B91E4BA8
:100EEC0023B9D8F8000000F03AF8F0E74FF484701A
:100EFC00FFF7A4FA0028F4D00023C0E94033C4F86B
:100F0C00880001226368022E40F8239002FA03F253
:100F1C0000EB8301D0F8003143EA0203C0F8003142
:100F2C00C1F8807002BFD0F804311343C0F804310B
:100F3C006368D8F800005A1C0233626044F82350EE
:100F4C0000F00EF80020C4E76C000020D004002054
:100F5C00440400200000000049040A087047704750
:100F6C00704700001D000A085D000A0885000A0889
:100F7C0089000A08000000006170700025592D25B9
:100F8C006D2D25645425483A254D3A2553257A0074
:100F9C0061736374696D650000000000000000005F
:100FAC00F3060A08F1060A0825070A0800000000E3
:100FBC0000000000BF070A0825080A08FD070A08F8
:100FCC00CD040A08EF070A08C1070A08D1070A0866
:100FDC001F080A08E1070A08B9070A080000000000
:100FEC000000000045090A08AD090A0889090A0829
:100FFC00CD040A0859090A0875090A0867090A087C
:10100C0083090A0847090A084B090A08000000006E
:10101C0000000000E5090A082F0A0A08070A0A0856
:10102C00E7090A080F0A0A08170A0A081F0A0A0819
:10103C00270A0A080000000000000000030B0A0841
:10104C00F90A0A08EF0A0A08610A0A08E30A0A08F8
:10105C00D70A0A08610B0A08690B0A08CB0A0A08A6
:10106C00C30A0A08B90A0A08AF0A0A086B0A0A086E
:10107C000000000000000000210B0A082B0B0A08DE
:10108C00350B0A083F0B0A08490B0A08550B0A08CE
:10109C00610B0A08690B0A08710B0A087D0B0A0818
:1010AC00850B0A088F0B0A08990B0A080052454554
:1010BC004E54206D616C6C6F632073756363656552
:1010CC00646564002F6D6E742F776F726B73706133
:1010DC0063652F776F726B73706163652F47434342
:1010EC002D31302D706970656C696E652F6A656E77
:1010FC006B696E732D4743432D31302D70697065CC
:10110C006C696E652D34385F3230323031313234A7
:10111C005F313630363138303634312F7372632FBD
:10112C006E65776C69622F6E65776C69622F6C697E
:10113C0062632F7374646C69622F72616E642E63C8
:10114C000000000019010A08A9040A0859050A0838
:10115C0069050A0885050A080D0B0A08E90B0A0837
:04116C00650D0A08FB
:04117000000000007B
:10117400070000009C0F0A080C000020000000007B
:10118400000000000000000000000000000000005B
:10119400000000000000000000000000000000004B
:1011A400000000000000000000000000000000003B
:1011B400000000000000000000000000000000002B
:1011C400000000000000000000000000000000001B
:1011D400000000000000000000000000D404002013
:1011E400FFFFFFFF00000102030405060708090AC8
:1011F4000B0C0D0E0F101112131415161718191AC3
:081204001B1C1D1E1F20280009
:04120C0078563412CA
:04000005080A001CC9
:00000001FF
