:02000004080AE8
:1000000000000A08BC1D0A080000060006000501E1
:080010000402E50C00000000F1
:04001800FC1A0A08BC
:1000200009480A4908B5884205D0094A824202D0E7
:10003000121A01F0AFFC0748074A0021121A01F01A
:10004000B7FC064808BD00BF00000020241D0A08B8
:100050007000002070000020D9040020D904002086
:1000600070B500F023FC0025054E064CA41BA40827
:10007000AC4200D170BD56F8043B98470135F7E714
:10008000F81C0A08141D0A0800F014B808B500F09E
:100090002BF8BDE8084000F0C1BB00F003BA00F047
:1000A00009BA0078B0FA80F0400970470123037064
:1000B0007047000010B5094B0021188800F0FCFEC5
:1000C00000F0F6FC4FF4165100F0D8FCBDE81040EB
:1000D000002309220249034800F0D4B9000000209F
:1000E00070000020101B0A0873B51F4B1F4E1888A4
:1000F00000F0F3FE0446A0F51B7001F0E3F818A32E
:10010000D3E9002301F048F9C6E9000100F0D0FC72
:10011000002C054620DA2D2100F030FA61420A2237
:10012000284600F044FA00F0C3FC114900F022FA1E
:1001300000F0BEFC02230093D6E9002300F016FB7A
:1001400000F0B6FC0B4900F028FA4FF4FA7002B048
:10015000BDE8704000F022BB2146E0E7AFF300802D
:10016000E0BE0E9C33A2B43F0000002070000020CF
:10017000151B0A08181B0A0808B5024B1B685B68A8
:10018000019308BDB001060808B5024B1B689B68C7
:10019000019308BDB001060808B5024B1B681B6B34
:1001A000019308BDB001060808B5024B1B685B68E7
:1001B000019308BD9C01060808B5024B1B685B69EA
:1001C000019308BD9C01060808B5024B1B685B6CD7
:1001D000019308BDD001060808B5024B1B689B6C53
:1001E000019308BDD001060808B5024B1B685B6A85
:1001F000019308BDC401060808B5024B1B689B6A41
:10020000019308BDC401060808B5024B1B68DB6AF0
:10021000019308BDC401060808B5024B1B681B6B9F
:10022000019308BDC401060808B5024B1B685B6B4F
:10023000019308BDC401060808B5024B1B689B6BFF
:10024000019308BDC401060808B5024B1B681B6C6E
:10025000019308BDC401060808B5024B1B681B6E5C
:10026000019308BDC401060808B5024B1B681B6E4C
:10027000019308BDAC01060808B5024B1B685B6E14
:10028000019308BDAC01060808B5024B1B689B6EC4
:10029000019308BDAC01060808B5024B1B68DB6E74
:1002A000019308BDAC01060808B5024B1B681B6F23
:1002B000019308BDAC01060808B5024B1B685B6FD3
:1002C000019308BDAC01060808B5034B1B68D3F8C1
:1002D0008030019308BD0000AC01060808B5024B50
:1002E0001B68DB69019308BDB401060808B5024B21
:1002F0001B681B6A019308BDB401060808B5024BD0
:100300001B681B68019308BDD801060808B5024B9D
:100310001B685B68019308BDD801060808B5024B4D
:100320001B681B69019308BDD801060808B5024B7C
:100330001B685B69019308BDD801060808B5024B2C
:100340001B689B69019308BDD801060808B5024BDC
:100350001B68DB69019308BDD801060808B5024B8C
:100360001B681B6A019308BDD801060808B5024B3B
:100370001B689B6C019308BDC001060808B5024BC1
:100380001B685B68019308BDA401060808B5024B11
:100390001B685B69019308BDA401060808B5034BFF
:1003A0001B68D3F89030019308BD0000A401060833
:1003B00008B5034B1B68D3F89C30019308BD0000BF
:1003C000A401060808B5024B1B685B68019308BDD1
:1003D000C801060808B5024B1B689B68019308BD5D
:1003E000C801060808B5024B1B68DB68019308BD0D
:1003F000C801060808B5024B1B681B69019308BDBC
:10040000C801060808B5024B1B685B69019308BD6B
:10041000C801060808B5024B1B689B69019308BD1B
:10042000C801060808B5024B1B68DB69019308BDCB
:10043000C801060808B5024B1B681B6A019308BD7A
:10044000C801060808B5024B1B681B6B019308BD69
:10045000C801060808B5024B1B685B6B019308BD19
:10046000C801060808B5024B1B681B6C019308BD48
:10047000C801060808B5024B1B685B6C019308BDF8
:10048000C801060808B5024B1B681B68019308BD2C
:10049000CC01060808B5024B1B68DB6B019308BD55
:1004A000CC01060808B5024B1B681B68019308BD08
:1004B000A001060808B5024B1B685B68019308BDE4
:1004C000A001060808B5024B1B681B6C019308BD10
:1004D000A001060808B5024B1B685B6C019308BDC0
:1004E000A001060870B5002604460D4640F8086FC6
:1004F000FFF76AFE28462570FFF7F0FE204666608B
:1005000070BD000002220020044B1A60044B054A13
:10051000C3E900009A60FFF731BF00BF84000020EC
:10052000780000200000FFFFF8B506460D460024C5
:100530008F18BD420CD0336830469B6815F8011BFC
:100540009847031E01DB1C44F3E7002C08BF1C4640
:100550002046F8BD70B505460C46084649B101F085
:100560005DFA2B68024621462846BDE87040DB68EC
:10057000184770BD08B5FFF7EDFF08BD03689B681D
:10058000184738B50D210546FFF7F8FF0A21044644
:100590002846FFF7F3FF204438BD38B50546FFF77E
:1005A000D9FF04462846FFF7ECFF204438BD00235E
:1005B000012A98BF0A2230B58BB00C468DF8243042
:1005C00009A92546B4FBF2F404FB1253DBB2092B54
:1005D00094BF30333733DBB2AA4201F8013DF0D982
:1005E000FFF7B8FF0BB030BD2DE9F74F05461946B0
:1005F000104692461F469DF8306001F067F940B101
:1006000051492846FFF7A6FF0446204603B0BDE83F
:10061000F08F27F000444FF0FF32504621464B4BFD
:1006200001F054F948B94FF0FF3250462146474B8C
:1006300001F02EF908B94649E3E74FF06042504611
:100640003946444B01F038F908B14349D9E74FF036
:10065000604250463946414B01F010F90028F4D170
:10066000002200235046394601F008F9044630B113
:100670002D212846FFF782FF044607F100474FF07F
:10068000000B00204FF000083549DFF8D8905FFAE2
:100690008BF39E4206D942464B4600F0A7FF0BF172
:1006A000010BF4E73B46524600F0C0FC8946804609
:1006B00001F04AF9074600F0F5FD02460B464046B8
:1006C000494600F0B1FC0A22804689462846394650
:1006D000FFF76DFF0444002E97D028462249FFF70C
:1006E00039FF4FF0000ADFF87CB00444002E8CD0B4
:1006F00052465B464046494600F04EFE80468946DB
:1007000001F0FAF8071E1BDA2D212846FFF736FF05
:10071000034679420A2228460193FFF748FF019BCE
:10072000013E034438461C4400F0CCFD02460B4613
:100730004046494600F078FCF6B280468946D5E747
:1007400039460023E6E700BF1E1B0A08FFFFEF7FC4
:10075000221B0A08FFFFEF41261B0A08FFFFEFC11B
:100760000000E03F000024402A1B0A089DF800100A
:100770000091FFF739BF0000014B024A1A60704731
:10078000880000202C1B0A08024B1A68024B1A60D2
:10079000704700BF040000208C0000200021FFF7FC
:1007A000F5BD00000022014B9A60704790000020C8
:1007B000014B1860704700BF0800002008B5134BBC
:1007C00043B100F075F903681B699847002801DD03
:1007D000AFF300800E4B43B100F0B2FB03681B691E
:1007E0009847002801DDAFF300800A4B0BB1AFF34F
:1007F0000080094B43B100F095F903681B699847E5
:10080000002801DDAFF3008008BD00BF000000003C
:1008100000000000000000000000000008B5FFF725
:10082000CDFFFFF7C9FC014B186008BD1404002080
:100830000548064A08B5121A054901F0ABF8054B00
:10084000054A1A6008BD00BF004002400440024053
:10085000201D0A08004002401E1C279A002307B5ED
:100860001A466FF077010093FFF7A2FD03B05DF821
:1008700004FB000007B543880A2B08D0502B0BD18E
:10088000094B1B684BB103B05DF804EB1847FFF749
:10089000E5FF03B05DF804FB00231A466FF0770113
:1008A0000093FFF785FDF4E7A4000020002110B5B8
:1008B0001148FFF70FFE114B1A68114B9A420CBFFB
:1008C000012200220F4B1A7001D0FFF7B1FFFFF792
:1008D0006BFC044601F074F80B4B13B12046AFF3E8
:1008E000008000210848FFF7D5FDBDE81040002139
:1008F0000648FFF753BD00BFB1070A080040024099
:100900001E1C279AA00000200000000075080A089D
:100910007047F8B50E46002400F10807051D17F8CA
:10092000011D0A223046FFF742FEAF42044401D1C6
:100930002046F8BD002CF2D02E213046FFF71EFED7
:100940000444ECE710B504461821FFF7A8FB204645
:1009500010BD000010B50446044B1122002140F8E0
:10096000043B01F025F8204610BD00BF541B0A08C7
:100970000346074A10B543F8042B01F1100251F861
:10098000044B914243F8044BF9D10A781A7010BD18
:10099000541B0A08024AC0E900210422027570476C
:1009A000541B0A0810B59DF8084044EA03240423A8
:1009B00044EA024444EA01644460037510BD000047
:1009C00013B5044C04609DF810400094FFF7EAFF53
:1009D00002B010BD541B0A0841747047704770473D
:1009E00008B50021007CFFF7A9FC40EAE07008BDD3
:1009F00008B50121007CFFF7A1FC40EAE07008BDCA
:100A000008B5007CFFF792FC20EAE07008BD08B54D
:100A1000007CFFF783FC20EAE07008BD38B504468F
:100A2000007C0D46FFF782FC002801DC607C28B1C9
:100A30002946207CFFF78AFC20EAE07038BD007C64
:100A4000FFF78CBC10B504461421FFF728FB2046A5
:100A500010BD704710B54FF47A7304460846002164
:100A6000C4E90113044B207423600123114663740D
:100A7000FFF744FC204610BD681B0A080022007CDA
:100A8000FFF744BC10B504461422002100F090FF8B
:100A9000054B20466360054BE36040F20113238160
:100AA0008123238210BD00BFD8000020D90100207F
:100AB00030B50E4D87B001A8FFF7E4FF2978BFF3EA
:100AC0005B8F11F001040ED12846FFF7EAFA50B10E
:100AD000214601AA0648FFF7BDFF2846FFF7E6FAC0
:100AE000044800F051FF024807B030BDA8000020C4
:100AF000B0000020DD090A0810B5044614220021C8
:100B000000F056FF054B20466360054BE36040F262
:100B1000011323818123238210BD00BF5A020020CC
:100B20005B03002010B50E4C86B001A8FFF7E4FF70
:100B30002378BFF35B8FDB070ED42046FFF7B1FAB3
:100B400050B1012101AA0748FFF784FF2046FFF7B3
:100B5000ADFA054800F018FF024806B010BD00BF0E
:100B6000AC000020C4000020530A0A0870474174FA
:100B7000704708B5007CFFF767FB20EAE07008BD0E
:100B800008B5007CFFF738FB20EAE07008BD08B527
:100B9000007CFFF741FB40EAE07008BD08B5007C2F
:100BA000FFF732FB40EAE07008BD007CFFF73CBB7A
:100BB00070B5467C04460D462EB12946207CBDE822
:100BC0007040FFF711BB007CFFF73EFB0028F4DC10
:100BD000304670BD10B504461421FFF760FA204678
:100BE00010BD000010B54FF47A7304460846114654
:100BF0000022C4E90123044B2074236001236374A1
:100C0000FFF72AFB204610BD981B0A087047F8B56D
:100C1000064615460C468F18BC4206D0336830464F
:100C20009B6814F8011B9847F6E72846F8BD002298
:100C3000007CFFF719BB0021007CFFF71DBB0021E2
:100C4000007CFFF721BB0021007CFFF725BB0021C2
:100C5000007CFFF729BB10B504461421FFF71FFAEB
:100C6000204610BD10B54FF47A73044608460021A3
:100C7000C4E90113034B114623602074FFF724FBE2
:100C8000204610BDC81B0A08002240681146FFF725
:100C9000B1BBF0B5154689B011220E4604460021BD
:100CA00003A800F085FE284600F0B8FE002781B2B8
:100CB00073682846009703AAFFF758FB30B13946FE
:100CC0002046FFF767FE204609B0F0BD204603A985
:100CD000FFF74EFEF7E7002240681146FFF7AABB78
:100CE000002240681146FFF7B5BB00224068FFF7BD
:100CF000A9BB0022406881F00101FFF793BB0023EC
:100D000040681A461946FFF785BB002340681A461B
:100D10001946FFF777BB002240681146FFF75ABB20
:100D2000002202214068FFF75DBB002340681A469D
:100D3000FFF748BB0422024B5A60024A1A60704710
:100D4000DC030020F01B0A08002340681A46FFF766
:100D500039BB002202214068FFF744BB00224068F3
:100D60001146FFF737BB002240681146FFF742BB30
:100D7000002340681A461946FFF744BB0023406829
:100D80001A461946FFF746BB00214068FFF76ABBC9
:100D900000214068FFF76EBB0022406881F001012E
:100DA000FFF740BB00224068FFF74CBB00224068C1
:100DB0001146FFF74FBB002240681146FFF73ABBD0
:100DC00070B515468EB0044608A8FFF7C3FD112282
:100DD000002103A800F0ECFD0026284600F01EFECE
:100DE0000A4B009681B25B68284603AAFFF7BEFA59
:100DF00030B131462046FFF7CDFD20460EB070BD24
:100E0000204603A9FFF7B4FDF7E700BFDC0300208D
:100E1000024B034A1A6000225A607047E403002024
:100E20002C1C0A08024B986808B1FFF7D5B9704727
:100E3000F0030020172870B5044601D9002070BDCA
:100E4000A0F10D03022B0BD9012824D800F0C2F821
:100E50000021007CFFF730FA80F00100C0B2EEE71D
:100E6000124E3178BFF35B8F11F001050DD1304682
:100E7000FFF717F948B129460D48FFF733FB304615
:100E8000FFF714F90B4800F07FFD094B1878FFF7C6
:100E90002DFA0028D2D1123C012C05D800F050F8D0
:100EA000007CFFF7C9F9D7E70120C8E7EC03002071
:100EB000F0030020250E0A08172838B504460D4611
:100EC0000AD8FF2908D0FFF7B5FF28B129462046E8
:100ED000BDE83840FFF758B938BD10B504460928B9
:100EE0009CBF0A34A4B22046FFF7A4FF50B10321EF
:100EF0002046FFF741F9032804D12046BDE8104001
:100F0000FFF74AB9002010BD7047000070B51425E6
:100F100004462A46002100F04BFD25808025074E1F
:100F2000284631462581258200F078F831466060F8
:100F3000284600F073F8E060204670BD601C0A0887
:100F400030B50E4D87B02978BFF35B8F11F00104E7
:100F500011D12846FFF7A5F868B101A8FFF7D6FF21
:100F6000214601AA0648FFF73DFE2846FFF79EF8F6
:100F7000044800F009FD024807B030BDFC03002022
:100F800000040020090F0A08002307B51A46194675
:100F900000930348FFF714FD03B05DF804FB00BFA6
:100FA000180400207047000070B514232025084E57
:100FB00004460360314685600561284600F02EF83E
:100FC00031466060284600F029F8E060204670BD98
:100FD000601C0A0830B50E4D87B02978BFF35B8FCF
:100FE00011F0010411D12846FFF75BF868B101A8A0
:100FF000FFF7DAFF214601AA0648FFF733FE28462D
:10100000FFF754F8044800F0BFFC024807B030BDB9
:101010003004002034040020A50F0A08FFF73DB873
:1010200081F0004102E000BF83F0004330B54FEA99
:1010300041044FEA430594EA050F08BF90EA020F06
:101040001FBF54EA000C55EA020C7FEA645C7FEA99
:10105000655C00F0E2804FEA5454D4EB5555B8BFBC
:101060006D420CDD2C4480EA020281EA030382EA2D
:10107000000083EA010180EA020281EA0303362DBF
:1010800088BF30BD11F0004F4FEA01314FF4801C92
:101090004CEA113102D0404261EB410113F0004FA4
:1010A0004FEA03334CEA133302D0524263EB43035B
:1010B00094EA050F00F0A780A4F10104D5F1200EF9
:1010C0000DDB02FA0EFC22FA05F2801841F1000154
:1010D00003FA0EF2801843FA05F359410EE0A5F128
:1010E00020050EF1200E012A03FA0EFC28BF4CF059
:1010F000020C43FA05F3C01851EBE37101F000450F
:1011000007D54FF0000EDCF1000C7EEB00006EEB1B
:101110000101B1F5801F1BD3B1F5001F0CD34908A5
:101120005FEA30004FEA3C0C04F101044FEA4452FC
:1011300012F5800F80F09A80BCF1004F08BF5FEA83
:10114000500C50F1000041EB045141EA050130BD63
:101150005FEA4C0C404141EB0101013C28BFB1F575
:10116000801FE9D291F0000F04BF01460020B1FAC0
:1011700081F308BF2033A3F10B03B3F120020CDA93
:101180000C3208DD02F1140CC2F10C0201FA0CF071
:1011900021FA02F10CE002F11402D8BFC2F1200CD6
:1011A00001FA02F120FA0CFCDCBF41EA0C0190408C
:1011B000E41AA2BF01EB0451294330BD6FEA0404D5
:1011C0001F3C1CDA0C340EDC04F11404C4F12002C0
:1011D00020FA04F001FA02F340EA030021FA04F3D2
:1011E00045EA030130BDC4F10C04C4F1200220FA29
:1011F00002F001FA04F340EA0300294630BD21FA67
:1012000004F0294630BD94F0000F83F4801306BF2C
:1012100081F480110134013D4EE77FEA645C18BF20
:101220007FEA655C29D094EA050F08BF90EA020FB7
:1012300005D054EA000C04BF1946104630BD91EAAF
:10124000030F1EBF0021002030BD5FEA545C05D1B2
:101250004000494128BF41F0004130BD14F58004F1
:101260003CBF01F5801130BD01F0004545F0FE4165
:1012700041F470014FF0000030BD7FEA645C1ABF9A
:10128000194610467FEA655C1CBF0B46024650EAD1
:10129000013406BF52EA033591EA030F41F40021FD
:1012A00030BD00BF90F0000F04BF0021704730B583
:1012B0004FF4806404F132044FF000054FF0000158
:1012C00050E700BF90F0000F04BF0021704730B519
:1012D0004FF4806404F1320410F0004548BF4042EE
:1012E0004FF000013EE700BF42004FEAE2014FEA43
:1012F00031014FEA02701FBF12F07F4393F07F4F1E
:1013000081F06051704732F07F4208BF704793F020
:101310007F4F04BF41F40021704730B54FF4607433
:1013200001F0004521F000411CE700BF50EA010236
:1013300008BF704730B54FF000050AE050EA0102DF
:1013400008BF704730B511F0004502D5404261EB4F
:1013500041014FF4806404F132045FEA915C3FF490
:10136000D8AE4FF003025FEADC0C18BF03325FEA2D
:10137000DC0C18BF033202EBDC02C2F1200300FADE
:1013800003FC20FA02F001FA03FE40EA0E0021FA03
:1013900002F11444BDE600BF70B54FF0FF0C4CF4F1
:1013A000E06C1CEA11541DBF1CEA135594EA0C0FA3
:1013B00095EA0C0F00F0DEF82C4481EA030621EADE
:1013C0004C5123EA4C5350EA013518BF52EA033519
:1013D00041F4801143F4801338D0A0FB02CE4FF0CB
:1013E0000005E1FB02E506F00042E0FB03E54FF0FB
:1013F0000006E1FB03569CF0000F18BF4EF0010EF3
:10140000A4F1FF04B6F5007F64F5407404D25FEAEE
:101410004E0E6D4146EB060642EAC62141EA5551A1
:101420004FEAC52040EA5E504FEACE2EB4F1FD0CE3
:1014300088BFBCF5E06F1ED8BEF1004F08BF5FEA61
:10144000500E50F1000041EB045170BD06F0004613
:1014500046EA010140EA020081EA0301B4EB5C04C0
:10146000C2BFD4EB0C0541EA045170BD41F48011B8
:101470004FF0000E013C00F3AB8014F1360FDEBFDD
:10148000002001F0004170BDC4F10004203C35DAB9
:101490000C341BDC04F11404C4F1200500FA05F33C
:1014A00020FA04F001FA05F240EA020001F00042DD
:1014B00021F0004110EBD37021FA04F642EB060153
:1014C0005EEA430E08BF20EAD37070BDC4F10C047D
:1014D000C4F1200500FA04F320FA05F001FA04F241
:1014E00040EA020001F0004110EBD37041F100012D
:1014F0005EEA430E08BF20EAD37070BDC4F1200538
:1015000000FA05F24EEA020E20FA04F301FA05F29F
:1015100043EA020321FA04F001F0004121FA04F247
:1015200020EA020000EBD3705EEA430E08BF20EA17
:10153000D37070BD94F0000F0FD101F00046400051
:1015400041EB010111F4801F08BF013CF7D041EAD3
:10155000060195F0000F18BF704703F000465200D7
:1015600043EB030313F4801F08BF013DF7D043EAA8
:101570000603704794EA0C0F0CEA135518BF95EA5E
:101580000C0F0CD050EA410618BF52EA4306D1D1E5
:1015900081EA030101F000414FF0000070BD50EA04
:1015A000410606BF1046194652EA430619D094EA8E
:1015B0000C0F02D150EA013613D195EA0C0F05D178
:1015C00052EA03361CBF104619460AD181EA0301CC
:1015D00001F0004141F0FE4141F470014FF0000084
:1015E00070BD41F0FE4141F4780170BD70B54FF01F
:1015F000FF0C4CF4E06C1CEA11541DBF1CEA13559F
:1016000094EA0C0F95EA0C0F00F0A7F8A4EB050480
:1016100081EA030E52EA03354FEA013100F0888077
:101620004FEA03334FF0805545EA131343EA126340
:101630004FEA022245EA111545EA10654FEA0026F5
:101640000EF000419D4208BF964244F1FD0404F5AE
:10165000407402D25B084FEA3202B61A65EB03050A
:101660005B084FEA32024FF480104FF4002CB6EBC7
:10167000020E75EB030E22BFB61A754640EA0C0047
:101680005B084FEA3202B6EB020E75EB030E22BF87
:10169000B61A754640EA5C005B084FEA3202B6EBC8
:1016A000020E75EB030E22BFB61A754640EA9C0087
:1016B0005B084FEA3202B6EB020E75EB030E22BF57
:1016C000B61A754640EADC0055EA060E18D04FEA15
:1016D000051545EA16754FEA06164FEAC30343EAB5
:1016E00052734FEAC2025FEA1C1CC0D111F4801F82
:1016F0000BD141EA00014FF000004FF0004CB6E77B
:1017000011F4801F04BF01430020B4F1FD0C88BF19
:10171000BCF5E06F3FF6AFAEB5EB030C04BFB6EB24
:10172000020C5FEA500C50F1000041EB045170BD17
:101730000EF0004E4EEA113114EB5C04C2BFD4EB44
:101740000C0541EA045170BD41F480114FF0000EC8
:10175000013C90E645EA060E8DE60CEA135594EA44
:101760000C0F08BF95EA0C0F3FF43BAF94EA0C0F47
:101770000AD150EA01347FF434AF95EA0C0F7FF4BC
:1017800025AF104619462CE795EA0C0F06D152EA10
:1017900003353FF4FDAE1046194622E750EA4106F4
:1017A00018BF52EA43067FF4C5AE50EA41047FF405
:1017B0000DAF52EA43057FF4EBAE12E74FF0FF3C6A
:1017C00006E000BF4FF0010C02E000BF4FF0010C3B
:1017D0004DF804CD4FEA410C7FEA6C5C4FEA430CB4
:1017E00018BF7FEA6C5C1BD001B050EA410C0CBF03
:1017F00052EA430C91EA030F02BF90EA020F002065
:10180000704710F1000F91EA030F58BF994208BFCB
:1018100090422CBFD8176FEAE37040F00100704788
:101820004FEA410C7FEA6C5C02D150EA013C07D1DF
:101830004FEA430C7FEA6C5CD6D152EA033CD3D02A
:101840005DF8040B704700BF8446104662468C4624
:101850001946634600E000BF01B5FFF7B7FF002857
:1018600048BF10F1000F01BD4DF808EDFFF7F4FF80
:101870000CBF012000205DF808FB00BF4DF808ED0B
:10188000FFF7EAFF34BF012000205DF808FB00BF2E
:101890004DF808EDFFF7E0FF94BF012000205DF850
:1018A00008FB00BF4DF808EDFFF7CEFF94BF012005
:1018B00000205DF808FB00BF4DF808EDFFF7C4FFFE
:1018C00034BF012000205DF808FB00BF4FEA410C47
:1018D0007FEA6C5C02D150EA013C0AD14FEA430C2A
:1018E0007FEA6C5C02D152EA033C02D14FF0000067
:1018F00070474FF0010070474FEA410212F50012A5
:1019000015D211D56FF47873B3EB625212D94FEA46
:10191000C12343F0004343EA505311F0004F23FA30
:1019200002F018BF404270474FF00000704750EA85
:10193000013005D111F0004008BF6FF00040704742
:101940004FF00000704700BF4A0011D212F500129C
:1019500011D20DD56FF47873B3EB62520ED44FEA07
:10196000C12343F0004343EA505323FA02F0704787
:101970004FF00000704750EA013002D14FF0FF30C5
:1019800070474FF000007047002301461A46184682
:1019900000F04CB80A44914200F1FF3300D1704787
:1019A00010B511F8014B914203F8014FF9D110BD68
:1019B00003460244934200D1704703F8011BF9E744
:1019C00038B5104B04461D68AB6BB3B91820FEF751
:1019D00069FD0246A86320B942210B4B0B48FEF774
:1019E00071FD0B490B4BC0E900130B4B00218360C9
:1019F0000B2383810120C2E904010022AB6B1C612F
:101A00005A6138BD08000020611C0A08781C0A08C9
:101A10000E33CDAB34126DE6ECDE0500034613F851
:101A2000012B002AFBD1181A013870472DE9F84321
:101A3000DFF8AC800646D8F800001F460D469146F8
:101A400000F058F8274B1C6834B9274C1C60274B12
:101A500013B11B68C4F8883063681F2B07DDD8F802
:101A6000000000F049F84FF0FF30BDE8F8835EB3A6
:101A7000D4F8880088B91E4B23B9D8F8000000F0CC
:101A80003AF8F0E74FF48470FEF70CFD0028F4D02C
:101A90000023C0E94033C4F8880001226368022EA5
:101AA00040F8239002FA03F200EB8301D0F80031F2
:101AB00043EA0203C0F80031C1F8807002BFD0F8D9
:101AC00004311343C0F804316368D8F800005A1C8D
:101AD0000233626044F8235000F00EF80020C4E79F
:101AE0006C000020D4040020480400200000000006
:101AF000A5040A08704770477047000021000A08D3
:101B000061000A0889000A088D000A080000000028
:101B100074656D70002C20002064656743006E6161
:101B20006E00696E66006F7666002E006170700050
:101B300025592D256D2D25645425483A254D3A25E6
:101B400053257A0061736374696D650000000000BD
:101B50000000000013090A0811090A0845090A08CB
:101B60000000000000000000DF090A08450A0A081A
:101B70001D0A0A0829050A080F0A0A08E1090A08C5
:101B8000F1090A083F0A0A08010A0A08D9090A08DD
:101B900000000000000000006D0B0A08D50B0A08C9
:101BA000B10B0A0829050A08810B0A089D0B0A08CF
:101BB0008F0B0A08AB0B0A086F0B0A08730B0A0895
:101BC00000000000000000000D0C0A08570C0A0875
:101BD0002F0C0A080F0C0A08370C0A083F0C0A08D9
:101BE000470C0A084F0C0A08000000000000000023
:101BF0002B0D0A08210D0A08170D0A08890C0A087E
:101C00000B0D0A08FF0C0A08890D0A08910D0A0835
:101C1000F30C0A08EB0C0A08E10C0A08D70C0A08B6
:101C2000930C0A080000000000000000490D0A089B
:101C3000530D0A085D0D0A08670D0A08710D0A08A0
:101C40007D0D0A08890D0A08910D0A08990D0A08E8
:101C5000A50D0A08AD0D0A08B70D0A08C10D0A083E
:101C6000005245454E54206D616C6C6F6320737556
:101C700063636565646564002F6D6E742F776F72A2
:101C80006B73706163652F776F726B7370616365DF
:101C90002F4743432D31302D706970656C696E6537
:101CA0002F6A656E6B696E732D4743432D31302D5E
:101CB000706970656C696E652D34385F3230323012
:101CC000313132345F313630363138303634312FBD
:101CD0007372632F6E65776C69622F6E65776C69BE
:101CE000622F6C6962632F7374646C69622F726116
:101CF0006E642E630000000005050A0879070A08D3
:101D000089070A08A5070A08350D0A08110E0A08EE
:101D1000890F0A0800000000000000000000000019
:041D200000000000BF
:101D24000A000000441B0A080C0000200000000008
:101D3400000000000000000000000000000000009F
:101D4400000000000000000000000000000000008F
:101D5400000000000000000000000000000000007F
:101D6400000000000000000000000000000000006F
:101D7400000000000000000000000000000000005F
:101D8400000000000000000000000000D804002053
:101D9400FFFFFFFF00000102030405060708090A0C
:101DA4000B0C0D0E0F101112131415161718191A07
:081DB4001B1C1D1E1F2028004E
:041DBC00785634120F
:04000005080A0020C5
:00000001FF
