:02000004080AE8
:1000000000000A0814250A08000006000600050181
:080010000402E50C00000000F1
:0400180058220A0858
:10001C0009480A4908B5884205D0094A824202D0EB
:10002C00121A02F05FF80748074A0021121A02F070
:10003C0067F8064808BD00BF0000002074240A08B9
:10004C007800002078000020F1040020F10400204A
:10005C0070B501F089FC0025054E064CA41BA408C4
:10006C00AC4200D170BD56F8043B98470135F7E718
:10007C004C240A0870240A0800F014B808B500F0E3
:10008C0017F8BDE8084001F027BC01F04BBB01F0AC
:10009C0051BB0078B0FA80F040097047012303701F
:1000AC0070470000014800F075B800BF78000020D0
:1000BC00FF22F8B50021104601F091F90022074605
:1000CC005021104601F08BF9052205463C213220C7
:1000DC0001F085F90646174C3A462046002101F0FE
:1000EC003BF92A462046012101F036F9324602211D
:1000FC00204601F031F9204600F082F84FF47A7076
:10010C0001F0AAFB3A462046002101F025F93246BF
:10011C002046012101F020F92A462046022101F057
:10012C001BF9204600F06CF8BDE8F8404FF47A70EB
:10013C0001F092BB78000020044B054A05491B785E
:10014C0012780988044800F04AB800BF0800002063
:10015C0004000020000000207800002038B5044680
:10016C00C0680D4608B101F0E5FAA379062B0CBF67
:10017C0004200320684380B2A08001F0D3FAE06031
:10018C0028B10021A28801F0BBFF658038BDA0809A
:10019C006080FBE710B504460121C07901F0E6FE52
:1001AC000021E07901F0F3FE0123237010BD38B576
:1001BC00037805460C461BB10021C07901F0D6FE30
:1001CC002B78EC7153B1A4B22046012101F0CEFE84
:1001DC002046BDE83840002101F0D9BE38BD70B5CD
:1001EC000025044616468371C0E903550570057257
:1001FC00FFF7B4FF20463146FFF7D9FF204670BD0C
:10020C00C368002B00F04184F0B583790446023BAF
:10021C00DBB2042B8CBF3225284A87B098BF52F82A
:10022C00235001F011F92369C01AA842F9D372B610
:10023C00A388A579ADF80A30BDF80A30022DE16823
:10024C009BB200F06E82072D00F06B82062D00F041
:10025C001D84052D00F0A183082D00F09E83002D38
:10026C0040F04F85002B00F092834FF40006144AA7
:10027C000496BDF80A300331033B9BB2ADF80A304B
:10028C0011F8033CDBB28DF8073011F8023CDBB2FD
:10029C008DF8063011F8013CDBB28DF808309DF872
:1002AC0007009DF806301B0243EA00439DF8080046
:1002BC00034303938DF805501BE100BF6C220A0821
:1002CC008C000020004600BF00BF00BF00BF00BF75
:1002DC0000BF00BF00BF00BF00BF00BF00BF00BF1A
:1002EC0000BF00BF00BF00BF00BF00BF00BF00BF0A
:1002FC0000BF00BF00BF00BF00BF00BF00BF00BFFA
:10030C0000BF00BF00BF00BF00BF00BF00BF00BFE9
:10031C0000BF00BF00BF00BF00BF00BF00BF00BFD9
:10032C0000BF00BF00BF00BF00BF00BF00BF00BFC9
:10033C0000BF00BF00BF00BF00BF00BF00BF00BFB9
:10034C0000BF00BF00BF00BF00BF00BF00BF00BFA9
:10035C0000BF00BF00BF00BF00BF00BF00BF00BF99
:10036C0000BF00BF00BF00BF00BF00BF00BF00BF89
:10037C0000BF00BF00BF00BF00BF00BF00BF00BF79
:10038C0000BF00BF00BF00BF00BF00BF00BF00BF69
:10039C0000BF00BF00BF00BF00BF00BF00BF00BF59
:1003AC0000BF00BF00BF00BF00BF00BF00BF00BF49
:1003BC0000BF00BF00BF00BF00BF00BF00BF00BF39
:1003CC0000BF00BF00BF00BF00BF00BFE3791068D3
:1003DC00C3EBC30300EB830750F82330B888588372
:1003EC00004600BF00BF00BF00BF00BF00BF00BF82
:1003FC0000BF00BF00BF00BF00BF00BF00BF00BFF9
:10040C0000BF00BF00BF00BF00BF00BF00BF00BFE8
:10041C0000BF00BF00BF00BF00BF00BF00BF00BFD8
:10042C0000BF00BF00BF00BF00BF00BF00BF00BFC8
:10043C0000BF00BF00BF00BF00BF00BF00BF00BFB8
:10044C0000BF00BF00BF00BF00BF00BF00BF00BFA8
:10045C0000BF00BF00BF00BF00BF00BF00BF00BF98
:10046C0000BF00BF00BF00BF00BF00BF00BF00BF88
:10047C0000BF00BF00BF00BF00BF00BF00BF00BF78
:10048C0000BF00BF00BF00BF00BF00BF00BF00BF68
:10049C0000BF00BF00BF00BF00BF00BF00BF00BF58
:1004AC0000BF00BF00BF00BF00BF00BF00BF00BF48
:1004BC0000BF00BF00BF00BF00BF00BF00BF00BF38
:1004CC0000BF00BF00BF00BF00BF00BF00BF00BF28
:1004DC0000BF00BF00BF00BF00BF049B5B080493BC
:1004EC009DF805300133DBB2172B8DF8053000F287
:1004FC002387E3791068C3EBC30300EB830750F841
:10050C002330B88818830398049B18427FF4DAAE22
:10051C00004600BF00BF00BF00BF00BF00BF00BF50
:10052C0000BF00BF00BF00BF00BF00BF00BF00BFC7
:10053C0000BF00BF00BF00BF00BF00BF00BF00BFB7
:10054C0000BF00BF00BF00BF00BF00BF00BF00BFA7
:10055C0000BF00BF00BF00BF00BF00BF00BF00BF97
:10056C0000BFE3791068C3EBC30300EB830750F8BB
:10057C002330B8885883004600BF00BF00BF00BFBF
:10058C0000BF00BF00BF00BF00BF00BF00BF00BF67
:10059C0000BF00BF00BF00BF00BF00BF00BF00BF57
:1005AC0000BF00BF00BF00BF00BF00BF00BF00BF47
:1005BC0000BF00BF00BF00BF00BF00BF00BF00BF37
:1005CC0000BF00BF00BF00BF00BF00BF00BF00BF27
:1005DC0000BF00BF00BF00BF00BF00BF00BF00BF17
:1005EC0000BF00BF00BF00BF00BF00BF00BF00BF07
:1005FC0000BF00BF00BF00BF00BF00BF00BF00BFF7
:10060C0000BF00BF00BF00BF00BF00BF00BF00BFE6
:10061C0000BF00BF00BF00BF00BF00BF00BF00BFD6
:10062C0000BF00BF00BF00BF00BF00BF00BF00BFC6
:10063C0000BF00BF00BF00BF00BF00BF00BF00BFB6
:10064C0000BF00BF00BF00BF00BF00BF00BF00BFA6
:10065C0000BF00BF00BF00BF00BF00BF00BF00BF96
:10066C0000BF00BF00BF00BF00BF00BF00BF00BF86
:10067C0000BF00BF00BF00BF00BF00BF00BF00BF76
:10068C0000BF00BF00BF00BF00BF00BF00BF00BF66
:10069C0000BF00BF00BF00BF00BF00BF00BF00BF56
:1006AC0000BF00BF00BF00BF00BF00BF00BF00BF46
:1006BC0000BF00BF00BF00BF00BF00BF00BF00BF36
:1006CC0000BF00BF00BF00BF00BF00BF00BF00BF26
:1006DC0000BF00BF00BF00BF00BF00BF00BF00BF16
:1006EC0000BF00BF00BF00BF00BF00BF00BF00BF06
:1006FC0000BF00BF00BF00BF00BF00BF00BF00BFF6
:10070C0000BF00BF00BF00BF00BF00BF00BF00BFE5
:10071C0000BF00BF00BF00BF00BF00BF00BF00BFD5
:10072C00DBE6002B00F033814FF400054FF0000C9A
:10073C00124A08460495BDF80A300331033B9BB2BC
:10074C00ADF80A3011F8033CDBB28DF8063011F825
:10075C00023CDBB28DF807308378DBB28DF80830C1
:10076C009DF806609DF807309DF808001B0243EACF
:10077C000643034303938DF805C07FE08C000020F3
:10078C00004600BF00BF00BF00BF00BF00BF00BFDE
:10079C0000BF00BF00BF00BF00BF00BF00BF00BF55
:1007AC0000BF00BF00BF00BF00BF00BF00BF00BF45
:1007BC0000BF00BF00BF00BF00BF00BF00BF00BF35
:1007CC0000BF00BF00BF00BF00BF00BF00BF00BF25
:1007DC0000BF00BF00BF00BF00BF00BF00BF00BF15
:1007EC0000BF00BF00BF00BF00BF00BF00BF00BF05
:1007FC0000BF00BF00BF00BF00BF00BF00BF00BFF5
:10080C0000BF00BF00BF00BF00BF00BF00BF00BFE4
:10081C0000BF00BF00BF00BF00BFE3791068C3EB8F
:10082C00C30300EB830650F82330B088588300468E
:10083C0000BF00BF00BF00BF00BF00BF00BF00BFB4
:10084C0000BF00BF00BF00BF00BF00BF00BF00BFA4
:10085C0000BF00BF00BF00BF00BF00BF00BF00BF94
:10086C0000BF00BF049B5B0804939DF80530013367
:10087C00DBB2172B8DF8053000F28380E37910681A
:10088C00C3EBC30300EB830650F82330B088188306
:10089C000398049B18427FF473AF004600BF00BF5F
:1008AC0000BF00BF00BF00BF00BF00BF00BF00BF44
:1008BC0000BF00BF00BF00BF00BF00BF00BF00BF34
:1008CC0000BFE3791068C3EBC30300EB830650F859
:1008DC002330B0885883004600BF00BF00BF00BF64
:1008EC0000BF00BF00BF00BF00BF00BF00BF00BF04
:1008FC0000BF00BF00BF00BF00BF00BF00BF00BFF4
:10090C0000BF00BF00BF00BF00BF00BF00BF00BFE3
:10091C0000BF00BF00BF00BF00BF00BF00BF00BFD3
:10092C0000BF00BF00BF00BF00BF00BF00BF00BFC3
:10093C0000BF00BF00BF00BF00BF00BF00BF00BFB3
:10094C0000BF00BF00BF00BF00BF00BF00BF00BFA3
:10095C0000BF00BF00BF00BF00BF00BF00BF00BF93
:10096C0000BF00BF00BF00BF00BF00BF00BF00BF83
:10097C0000BF00BF00BF00BF00BF00BF00BF00BF73
:10098C0070E7BDF80A309BB2002B7FF4D2AE62B692
:10099C0000F05AFD206107B0F0BD002BF7D04FF4EA
:1009AC0000054FF0000C544B1868544B0495BDF8DF
:1009BC000A200331033A92B2ADF80A2011F8032C45
:1009CC00D2B28DF8062011F8022CD2B28DF8072085
:1009DC0011F8012CD2B28DF808209DF806609DF814
:1009EC000720120242EA06429DF808603243039245
:1009FC008DF805C0E2795F68C2EBC20200EB82069B
:100A0C00B68850F8222005971683039E049A164246
:100A1C0025D05A68059E921B4F2AFAD9E279C2EB6F
:100A2C00C20200EB8206B68850F8222056835A6820
:100A3C0005925A68059E921B072AFAD9049A520805
:100A4C0004929DF805200132D2B2172A8DF80520A8
:100A5C00D0D9BDF80A2092B2002AA7D197E75A68DC
:100A6C00059E921B182AFAD9E279C2EBC20200EB5E
:100A7C008206B68850F8222056835A6805925A6826
:100A8C00059E921B452AFAD9D8E77047002B3FF4F4
:100A9C007EAF4FF000450026174A0495BDF80A308A
:100AAC000431043B9BB2ADF80A3011F8043CDBB2C4
:100ABC008DF8073011F8033CDBB28DF8063011F8D5
:100ACC00023CDBB28DF8083011F8013CDBB28DF83A
:100ADC0009309DF807009DF806301B0443EA0063BB
:100AEC009DF808009DF809703B4343EA00230393EB
:100AFC008DF805607FE000BF8C000020001000E046
:100B0C00004600BF00BF00BF00BF00BF00BF00BF5A
:100B1C0000BF00BF00BF00BF00BF00BF00BF00BFD1
:100B2C0000BF00BF00BF00BF00BF00BF00BF00BFC1
:100B3C0000BF00BF00BF00BF00BF00BF00BF00BFB1
:100B4C0000BF00BF00BF00BF00BF00BF00BF00BFA1
:100B5C0000BF00BF00BF00BF00BF00BF00BF00BF91
:100B6C0000BF00BF00BF00BF00BF00BF00BFE379E4
:100B7C001068C3EBC30300EB830750F82330B8882D
:100B8C005883004600BF00BF00BF00BF00BF00BFBE
:100B9C0000BF00BF00BF00BF00BF00BF00BF00BF51
:100BAC0000BF00BF00BF00BF00BF00BF00BF00BF41
:100BBC0000BF00BF00BF00BF00BF00BF00BF00BF31
:100BCC0000BF00BF00BF00BF00BF00BF00BF00BF21
:100BDC0000BF00BF00BF00BF00BF00BF00BF00BF11
:100BEC00049B5B0804939DF805300133DBB21F2B8B
:100BFC008DF805307ED8E3791068C3EBC30300EBA6
:100C0C00830750F82330B88818830398049B184244
:100C1C007FF476AF004600BF00BF00BF00BF00BF2F
:100C2C0000BF00BF00BF00BF00BF00BF00BF00BFC0
:100C3C0000BF00BF00BF00BF00BF00BFE37910685A
:100C4C00C3EBC30300EB830750F82330B8885883F9
:100C5C00004600BF00BF00BF00BF00BF00BF00BF09
:100C6C0000BF00BF00BF00BF00BF00BF00BF00BF80
:100C7C0000BF00BF00BF00BF00BF00BF00BF00BF70
:100C8C0000BF00BF00BF00BF00BF00BF00BF00BF60
:100C9C0000BF00BF00BF00BF00BF00BF00BF00BF50
:100CAC0000BF00BF00BF00BF00BF00BF00BF00BF40
:100CBC0000BF00BF00BF00BF00BF00BF00BF00BF30
:100CCC0000BF00BF00BF00BF00BF00BF00BF00BF20
:100CDC0000BF00BF00BF00BF00BF00BF00BF00BF10
:100CEC0000BF00BF00BF00BF00BF00BF00BF00BF00
:100CFC0000BF75E7BDF80A309BB2002B7FF4CDAE78
:100D0C0045E6032D00F02881002B3FF440AE4FF454
:100D1C0000050026164A0495BDF80A30E079033B1D
:100D2C009BB2ADF80A300B781768DBB28DF8073040
:100D3C004B78C0EBC000DBB28DF808308B780331F8
:100D4C00DBB28DF806309DF807C09DF808301B0209
:100D5C0043EA0C439DF806C043EA0C0307EB800CF6
:100D6C00039357F820308DF80560BCF804007AE046
:100D7C008C000020049B5B080493004600BF00BF5E
:100D8C0000BF00BF00BF00BF00BF00BF00BF00BF5F
:100D9C0000BF00BF00BF00BF00BF00BF00BF00BF4F
:100DAC0000BF00BF00BF00BF00BF00BF00BF00BF3F
:100DBC0000BF00BF00BF00BF00BF00BF00BF00BF2F
:100DCC0000BF00BF00BF00BF00BF00BF00BF00BF1F
:100DDC0000BF00BF00BF00BF00BF00BF00BF00BF0F
:100DEC0000BF00BF00BF00BF00BF00BF00BF00BFFF
:100DFC0000BF00BF00BF00BF00BF00BF00BF00BFEF
:100E0C00E07917689DF80530C0EBC00007EB800C4B
:100E1C00013357F82000BCF80470DBB28DF80530B4
:100E2C000783004600BF00BF00BF00BF00BF00BF6C
:100E3C0000BF00BF00BF00BF00BF00BF00BF00BFAE
:100E4C0000BF00BF00BF00BF00BF00BF9DF8053052
:100E5C00182B7AD0E3791068C3EBC30300EB83073C
:100E6C0050F82330B88858830398049B184281D1DA
:100E7C00004600BF00BF00BF00BF00BF00BF00BFE7
:100E8C0000BF00BF00BF00BF00BF00BF00BF00BF5E
:100E9C0000BFE3791068C3EBC30300EB830750F882
:100EAC002330B88818839DF805300133DBB28DF8F8
:100EBC000530049B5B080493004600BF00BF00BFD5
:100ECC0000BF00BF00BF00BF00BF00BF00BF00BF1E
:100EDC0000BF00BF00BF00BF00BF00BF00BF00BF0E
:100EEC0000BF00BF00BF00BF00BF00BF00BF00BFFE
:100EFC0000BF00BF00BF00BF00BF00BF00BF00BFEE
:100F0C0000BF00BF00BF00BF00BF00BF00BF00BFDD
:100F1C0000BF00BF00BF00BF00BF00BF00BF00BFCD
:100F2C0000BF00BF00BF00BF00BF00BF00BF00BFBD
:100F3C0000BF00BF00BF00BF00BF00BF00BF00BFAD
:100F4C0000BF9DF80530182B84D1BDF80A309BB238
:100F5C00002B7FF4E0AE1AE5002B3FF418AD4FF4F4
:100F6C0000050026124A0495BDF80A300331033BF4
:100F7C009BB2ADF80A3011F8033CDBB28DF80730A8
:100F8C0011F8023CDBB28DF8063011F8013CDBB2F3
:100F9C008DF808309DF807009DF806301B0243EAD7
:100FAC0000439DF80800034303938DF80560E0E0CF
:100FBC008C000020004600BF00BF00BF00BF00BF78
:100FCC0000BF00BF00BF00BF00BF00BF00BF00BF1D
:100FDC0000BF00BF00BF00BF00BF00BF00BF00BF0D
:100FEC0000BF00BF00BF00BF00BF00BF00BF00BFFD
:100FFC0000BF00BF00BF00BF00BF00BF00BF00BFED
:10100C0000BF00BF00BF00BF00BF00BF00BF00BFDC
:10101C0000BF00BF00BF00BF00BF00BF00BF00BFCC
:10102C0000BF00BF00BF00BF00BF00BF00BF00BFBC
:10103C0000BF00BF00BF00BF00BF00BF00BF00BFAC
:10104C0000BF00BF00BF00BF00BF00BF00BF00BF9C
:10105C0000BF00BF00BF00BF00BF00BF00BF00BF8C
:10106C0000BF00BF00BF00BF00BF00BF00BF00BF7C
:10107C0000BF00BF00BF00BF00BF00BF00BF00BF6C
:10108C0000BF00BF00BF00BF00BF00BF00BF00BF5C
:10109C0000BF00BF00BF00BF00BF00BF00BF00BF4C
:1010AC0000BF00BF00BF00BF00BF00BF00BF00BF3C
:1010BC0000BF00BF00BF00BF00BF00BF00BF00BF2C
:1010CC0000BF00BF00BF00BF00BF00BF00BF00BF1C
:1010DC0000BF00BF00BFE3791068C3EBC30300EB94
:1010EC00830750F82330B8885883004600BF00BFF0
:1010FC0000BF00BF00BF00BF00BF00BF00BF00BFEC
:10110C0000BF00BF00BF00BF00BF00BF00BF00BFDB
:10111C0000BF00BF00BF00BF00BF00BF00BF00BFCB
:10112C0000BF00BF00BF00BF00BF00BF00BF00BFBB
:10113C0000BF00BF00BF00BF00BF00BF00BF00BFAB
:10114C0000BF00BF00BF00BF00BF00BF00BF00BF9B
:10115C0000BF00BF00BF00BF00BF049B5B0804932F
:10116C009DF805300133DBB2172B8DF8053000F2FA
:10117C00EB80E3791068C3EBC30300EB830750F8F3
:10118C002330B88818830398049B18427FF412AF5D
:10119C00004600BF00BF00BF00BF00BF00BF00BFC4
:1011AC0000BF00BF00BF00BF00BF00BF00BF00BF3B
:1011BC0000BF00BF00BF00BF00BF00BF00BF00BF2B
:1011CC0000BF00BF00BF00BF00BF00BF00BF00BF1B
:1011DC0000BF00BF00BF00BF00BF00BF00BF00BF0B
:1011EC0000BF00BF00BF00BF00BF00BF00BF00BFFB
:1011FC0000BF00BF00BF00BF00BF00BF00BF00BFEB
:10120C0000BF00BF00BF00BF00BF00BF00BF00BFDA
:10121C0000BFE3791068C3EBC30300EB830750F8FE
:10122C002330B8885883004600BF00BF00BF00BF02
:10123C0000BF00BF00BF00BF00BF00BF00BF00BFAA
:10124C0000BF00BF00BF00BF00BF00BF00BF00BF9A
:10125C0000BF00BF00BF00BF00BF00BF00BF00BF8A
:10126C0000BF00BF00BF00BF00BF00BF00BF00BF7A
:10127C0000BF00BF00BF00BF00BF00BF00BF00BF6A
:10128C0000BF00BF00BF00BF00BF00BF00BF00BF5A
:10129C0000BF00BF00BF00BF00BF00BF00BF00BF4A
:1012AC0000BF00BF00BF00BF00BF00BF00BF00BF3A
:1012BC0000BF00BF00BF00BF00BF00BF00BF00BF2A
:1012CC0000BF00BF00BF00BF00BF00BF00BF00BF1A
:1012DC0000BF00BF00BF00BF00BF00BF00BF00BF0A
:1012EC0000BF00BF00BF00BF00BF00BF00BF00BFFA
:1012FC0000BF00BF00BF00BF00BF00BF00BF00BFEA
:10130C0000BF00BF00BF00BF00BF00BF00BF00BFD9
:10131C0000BF00BF00BF00BF00BF00BF00BF00BFC9
:10132C0000BF00BF00BF00BF00BF00BF00BF00BFB9
:10133C0000BF00BF00BF10E7BDF80A309BB2002B06
:10134C007EF496AFFFF723BBBDF80A309BB2002B9F
:10135C007FF409AEFFF71BBB4388F0B58B422DD948
:10136C00067AC2F30743C2F30724D5B23EB17343E6
:10137C0074437543C3F30723C4F307242D0A90F871
:10138C0006C0C768BCF1060F0CBF042603264E43EB
:10139C00ACF1020CB919BCF1060F1DD8DFE80CF04A
:1013AC00041C08040F040400BC554B708D7005E040
:1013BC00FE2B28BFFE23BB554D708C70F0BDBB556A
:1013CC004C708D70037A120E13B9D2B2CA70F5E755
:1013DC005A43C2F30722F9E7BB554C70E6E742EAE1
:1013EC00012242EA0040704708B500F005F8014BB5
:1013FC00186008BD8C00002008B5024B1B681B68E8
:10140C00019308BDB001060808B5024B1B689B6828
:10141C00019308BDB001060808B5024B1B68DB68D8
:10142C00019308BDB001060808B5024B1B681B6987
:10143C00019308BDB001060808B5024B1B685B6838
:10144C00019308BD9C01060808B5024B1B681B697B
:10145C00019308BD9C01060808B5024B1B685B692B
:10146C00019308BD9C01060808B5024B1B685B6C18
:10147C00019308BDD001060808B5024B1B689B6C94
:10148C00019308BDD001060808B5024B1B685B6AC6
:10149C00019308BDC401060808B5024B1B689B6A82
:1014AC00019308BDC401060808B5024B1B68DB6A32
:1014BC00019308BDC401060808B5024B1B681B6BE1
:1014CC00019308BDC401060808B5024B1B685B6B91
:1014DC00019308BDC401060808B5024B1B689B6B41
:1014EC00019308BDC401060808B5024B1B681B6CB0
:1014FC00019308BDC401060808B5024B1B681B6E9E
:10150C00019308BDC401060808B5024B1B681B6E8D
:10151C00019308BDAC01060808B5024B1B685B6E55
:10152C00019308BDAC01060808B5024B1B689B6E05
:10153C00019308BDAC01060808B5024B1B68DB6EB5
:10154C00019308BDAC01060808B5024B1B681B6F64
:10155C00019308BDAC01060808B5024B1B685B6F14
:10156C00019308BDAC01060808B5034B1B68D3F802
:10157C008030019308BD0000AC01060808B5024B91
:10158C001B68DB69019308BDB401060808B5024B62
:10159C001B681B6A019308BDB401060808B5024B11
:1015AC001B681B68019308BDD801060808B5024BDF
:1015BC001B681B69019308BDD801060808B5024BCE
:1015CC001B685B69019308BDD801060808B5024B7E
:1015DC001B689B69019308BDD801060808B5024B2E
:1015EC001B68DB69019308BDD801060808B5024BDE
:1015FC001B681B6A019308BDD801060808B5024B8D
:10160C001B689B6C019308BDC001060808B5024B12
:10161C001B685B68019308BDA401060808B5024B62
:10162C001B685B69019308BDA401060808B5034B50
:10163C001B68D3F89030019308BD0000A401060884
:10164C0008B5034B1B68D3F89C30019308BD000010
:10165C00A401060808B5024B1B685B68019308BD22
:10166C00C801060808B5024B1B689B68019308BDAE
:10167C00C801060808B5024B1B68DB68019308BD5E
:10168C00C801060808B5024B1B681B69019308BD0D
:10169C00C801060808B5024B1B685B69019308BDBD
:1016AC00C801060808B5024B1B689B69019308BD6D
:1016BC00C801060808B5024B1B68DB69019308BD1D
:1016CC00C801060808B5024B1B681B6A019308BDCC
:1016DC00C801060808B5024B1B681B6B019308BDBB
:1016EC00C801060808B5024B1B685B6B019308BD6B
:1016FC00C801060808B5024B1B681B6C019308BD9A
:10170C00C801060808B5024B1B685B6C019308BD49
:10171C00C801060808B5024B1B68DB6B019308BDBA
:10172C00CC01060808B5024B1B681B68019308BD69
:10173C00A001060808B5024B1B685B68019308BD45
:10174C00A001060808B5024B1B681B6C019308BD71
:10175C00A001060808B5024B1B685B6C019308BD21
:10176C00A001060870B5002604460D4640F8086F27
:10177C00FFF77AFE28462570FFF700FF20466660CB
:10178C0070BD000002220020044B1A60044B054A75
:10179C00C3E900009A60FFF739BF00BF9C0000202E
:1017AC00900000200000FFFFF8B506460D4600240F
:1017BC008F18BD420CD0336830469B6815F8011B5E
:1017CC009847031E01DB1C44F3E7002C08BF1C46A2
:1017DC002046F8BD70B505460C46084649B100F0E8
:1017EC00C5FC2B68024621462846BDE87040DB68E4
:1017FC00184770BD03689B6818470023012A98BFDF
:10180C000A2230B58BB00C468DF8243009A9254638
:10181C00B4FBF2F404FB1253DBB2092B94BF30334C
:10182C003733DBB2AA4201F8013DF0D9FFF7D2FF02
:10183C000BB030BD014B024A1A607047A00000206B
:10184C0080220A08024B1A68024B1A60704700BFCC
:10185C000C000020A40000200021FFF7DFBE0000D8
:10186C000022014B9A607047A8000020014B1860C1
:10187C00704700BF1000002008B5134B43B100F0B7
:10188C0071F903681B699847002801DDAFF30080EC
:10189C000E4B43B100F0B0FB03681B69984700285E
:1018AC0001DDAFF300800A4B0BB1AFF30080094BA5
:1018BC0043B100F091F903681B699847002801DDDA
:1018CC00AFF3008008BD00BF000000000000000066
:1018DC00000000000000000008B5FFF7CDFFFFF787
:1018EC00BBFD014B186008BD2C0400200548064ABE
:1018FC0008B5121A054900F0F5FB054B054A1A60AC
:10190C0008BD00BF004002400440024070240A0899
:10191C00004002401E1C279A002307B51A466FF0A0
:10192C0077010093FFF78CFE03B05DF804FB000019
:10193C0007B543880A2B08D0502B0BD1094B1B68D9
:10194C004BB103B05DF804EB1847FFF7E5FF03B0AC
:10195C005DF804FB00231A466FF077010093FFF744
:10196C006FFEF4E7BC000020002110B51148FFF712
:10197C00F1FE114B1A68114B9A420CBF0122002246
:10198C000F4B1A7001D0FFF7B1FFFFF755FD04465E
:10199C0000F0BEFB0B4B13B12046AFF300800021CF
:1019AC000848FFF7B7FEBDE8104000210648FFF7D6
:1019BC003DBE00BF79180A08004002401E1C279A41
:1019CC00B8000020000000003D190A087047F8B567
:1019DC000E46002400F10807051D17F8011D0A2208
:1019EC003046FFF70AFFAF42044401D12046F8BD50
:1019FC00002CF2D02E213046FFF7FCFE0444ECE71D
:101A0C0010B504461821FEF742FB204610BD00001D
:101A1C0010B50446044B1122002140F8043B00F0A1
:101A2C006FFB204610BD00BFA8220A080346074AD8
:101A3C0010B543F8042B01F1100251F8044B9142FC
:101A4C0043F8044BF9D10A781A7010BDA8220A0881
:101A5C00024AC0E90021042202757047A8220A0834
:101A6C0010B59DF8084044EA0324042344EA0244D8
:101A7C0044EA01644460037510BD000013B5044CC6
:101A8C0004609DF810400094FFF7EAFF02B010BD0F
:101A9C00A8220A08417470477047704708B50021A6
:101AAC00007CFFF793FD40EAE07008BD08B501210A
:101ABC00007CFFF78BFD40EAE07008BD08B5007CA8
:101ACC00FFF77CFD20EAE07008BD08B5007CFFF74D
:101ADC006DFD20EAE07008BD38B50446007C0D466B
:101AEC00FFF76CFD002801DC607C28B12946207CC6
:101AFC00FFF774FD20EAE07038BD007CFFF776BD7F
:101B0C0010B504461421FEF7C2FA204610BD7047EA
:101B1C0010B54FF47A73044608460021C4E901134A
:101B2C00044B20742360012311466374FFF736FDC8
:101B3C00204610BDBC220A0810B504461422002110
:101B4C0000F0DEFA054B20466360054BE36040F283
:101B5C00011323818123238210BD00BFF0000020DC
:101B6C00F101002030B50E4D87B001A8FFF7E4FF5E
:101B7C002978BFF35B8F11F001040ED12846FEF7D4
:101B8C0088FA50B1214601AA0648FFF7C1FF284642
:101B9C00FEF784FA044800F09FFA024807B030BD03
:101BAC00C0000020C8000020A51A0A0810B5044681
:101BBC001422002100F0A4FA054B20466360054B6B
:101BCC00E36040F2011323818123238210BD00BF07
:101BDC00720200207303002010B50E4C86B001A8D1
:101BEC00FFF7E4FF2378BFF35B8FDB070ED42046AF
:101BFC00FEF74FFA50B1012101AA0748FFF788FF01
:101C0C002046FEF74BFA054800F066FA024806B08B
:101C1C0010BD00BFC4000020DC0000201B1B0A0804
:101C2C0070474174704708B5007CFFF75DFC20EAF3
:101C3C00E07008BD08B5007CFFF72EFC20EAE070D0
:101C4C0008BD08B5007CFFF737FC40EAE07008BD22
:101C5C0008B5007CFFF728FC40EAE07008BD007C6A
:101C6C00FFF732BC70B5467C04460D462EB12946B2
:101C7C00207CBDE87040FFF707BC007CFFF734FC0C
:101C8C000028F4DC304670BD10B504461421FEF774
:101C9C00FEF9204610BD000010B54FF47A730446CF
:101CAC00084611460022C4E90123044B207423602A
:101CBC0001236374FFF720FC204610BDEC220A08B8
:101CCC007047F8B5064615460C468F18BC4206D030
:101CDC00336830469B6814F8011B9847F6E7284692
:101CEC00F8BD0022007CFFF70FBC0021007CFFF741
:101CFC0013BC0021007CFFF717BC0021007CFFF710
:101D0C001BBC0021007CFFF71FBC10B5044614213E
:101D1C00FEF7BDF9204610BD10B54FF47A7304469A
:101D2C0008460021C4E90113034B114623602074BB
:101D3C00FFF71AFC204610BD1C230A08002240683D
:101D4C001146FFF79FBCF0B5154689B011220E461F
:101D5C000446002103A800F0D3F9284600F006FA47
:101D6C00002781B273682846009703AAFFF746FC48
:101D7C0030B139462046FFF76BFE204609B0F0BD66
:101D8C00204603A9FFF752FEF7E7002240681146F0
:101D9C00FFF798BC002240681146FFF7A3BC002255
:101DAC004068FFF797BC0022406881F00101FFF703
:101DBC0081BC002340681A461946FFF773BC002308
:101DCC0040681A461946FFF765BC00224068114668
:101DDC00FFF748BC002202214068FFF74BBC0023F0
:101DEC0040681A46FFF736BC0422024B5A60024A7E
:101DFC001A607047F403002044230A08002340684B
:101E0C001A46FFF727BC002202214068FFF732BCBC
:101E1C00002240681146FFF725BC0022406811469D
:101E2C00FFF730BC002340681A461946FFF732BC56
:101E3C00002340681A461946FFF734BC002140685D
:101E4C00FFF758BC00214068FFF75CBC00224068DB
:101E5C0081F00101FFF72EBC00224068FFF73ABC6D
:101E6C00002240681146FFF73DBC00224068114635
:101E7C00FFF728BC70B515468EB0044608A8FFF7CE
:101E8C00C7FD1122002103A800F03AF900262846CC
:101E9C0000F06CF90A4B009681B25B68284603AAE5
:101EAC00FFF7ACFB30B131462046FFF7D1FD2046A1
:101EBC000EB070BD204603A9FFF7B8FDF7E700BFD1
:101ECC00F4030020024B034A1A6000225A60704748
:101EDC00FC03002080230A08024B986808B1FFF726
:101EEC00CBBA704708040020172870B5044601D9F6
:101EFC00002070BDA0F10D03022B0BD9012824D8B2
:101F0C0000F0C4F80021007CFFF726FB80F00100F4
:101F1C00C0B2EEE7124E3178BFF35B8F11F00105C2
:101F2C000DD13046FEF7B5F848B129460D48FFF7FC
:101F3C0019FC3046FEF7B2F80B4800F0CDF8094B0F
:101F4C001878FFF723FB0028D2D1123C012C05D8BE
:101F5C0000F052F8007CFFF7BFFAD7E70120C8E782
:101F6C000404002008040020E51E0A08172838B5D0
:101F7C0004460D460AD8FF2908D0FFF7B5FF28B153
:101F8C0029462046BDE83840FFF73EBA38BD38B583
:101F9C0004460D46FFF740FAFF2810D0062804D857
:101FAC004D2323FA00F0C30709D42046FFF79CFF0A
:101FBC0028B129462046BDE83840FFF735BA38BD70
:101FCC007047000070B5142504462A46002100F025
:101FDC0097F825808025074E284631462581258295
:101FEC0000F078F831466060284600F073F8E06045
:101FFC00204670BDB4230A0830B50E4D87B0297841
:10200C00BFF35B8F11F0010411D12846FEF741F8A4
:10201C0068B101A8FFF7D6FF214601AA0648FFF7D1
:10202C003BFE2846FEF73AF8044800F055F8024803
:10203C0007B030BD1404002018040020CD1F0A087E
:10204C00002307B51A46194600930348FFF716FDFF
:10205C0003B05DF804FB00BF3004002070470000A3
:10206C0070B514232025084E044603603146856064
:10207C000561284600F02EF831466060284600F0D5
:10208C0029F8E060204670BDB4230A0830B50E4D27
:10209C0087B02978BFF35B8F11F0010411D128466A
:1020AC00FDF7F7FF68B101A8FFF7DAFF214601AA97
:1020BC000648FFF731FE2846FDF7F0FF044800F014
:1020CC000BF8024807B030BD480400204C04002037
:1020DC0069200A08FDF7D9BF002301461A461846A5
:1020EC0000F04CB80A44914200F1FF3300D1704724
:1020FC0010B511F8014B914203F8014FF9D110BD05
:10210C0003460244934200D1704703F8011BF9E7E0
:10211C0038B5104B04461D68AB6BB3B91820FFF7EC
:10212C0001FB0246A86320B942210B4B0B48FFF779
:10213C0009FB0B490B4BC0E900130B4B00218360CF
:10214C000B2383810120C2E904010022AB6B1C61CB
:10215C005A6138BD10000020B5230A08CC230A08A8
:10216C000E33CDAB34126DE6ECDE0500034613F8EE
:10217C00012B002AFBD1181A013870472DE9F843BE
:10218C00DFF8AC800646D8F800001F460D46914695
:10219C0000F058F8274B1C6834B9274C1C60274BAF
:1021AC0013B11B68C4F8883063681F2B07DDD8F89F
:1021BC00000000F049F84FF0FF30BDE8F8835EB343
:1021CC00D4F8880088B91E4B23B9D8F8000000F069
:1021DC003AF8F0E74FF48470FFF7A4FA0028F4D033
:1021EC000023C0E94033C4F8880001226368022E42
:1021FC0040F8239002FA03F200EB8301D0F800318F
:10220C0043EA0203C0F80031C1F8807002BFD0F875
:10221C0004311343C0F804316368D8F800005A1C29
:10222C000233626044F8235000F00EF80020C4E73B
:10223C0074000020EC04002060040020000000006A
:10224C0031170A0870477047704700001D000A08D4
:10225C005D000A0885000A0889000A0800000000D1
:10226C002C01000018000000F40100002C010000FB
:10227C00500000006170700025592D256D2D2564CE
:10228C005425483A254D3A2553257A0061736374D9
:10229C00696D65000000000000000000DB190A08F1
:1022AC00D9190A080D1A0A080000000000000000E5
:1022BC00A71A0A080D1B0A08E51A0A08B5170A0816
:1022CC00D71A0A08A91A0A08B91A0A08071B0A0811
:1022DC00C91A0A08A11A0A08000000000000000030
:1022EC002D1C0A08951C0A08711C0A08B5170A0847
:1022FC00411C0A085D1C0A084F1C0A086B1C0A08C2
:10230C002F1C0A08331C0A08000000000000000003
:10231C00CD1C0A08171D0A08EF1C0A08CF1C0A0856
:10232C00F71C0A08FF1C0A08071D0A080F1D0A08DB
:10233C000000000000000000EB1D0A08E11D0A0867
:10234C00D71D0A08491D0A08CB1D0A08BF1D0A081B
:10235C00491E0A08511E0A08B31D0A08AB1D0A08BB
:10236C00A11D0A08971D0A08531D0A080000000049
:10237C0000000000091E0A08131E0A081D1E0A0888
:10238C00271E0A08311E0A083D1E0A08491E0A08A3
:10239C00511E0A08591E0A08651E0A086D1E0A08F5
:1023AC00771E0A08811E0A08005245454E54206DBE
:1023BC00616C6C6F63207375636365656465640041
:1023CC002F6D6E742F776F726B73706163652F77DF
:1023DC006F726B73706163652F4743432D31302DE2
:1023EC00706970656C696E652F6A656E6B696E736A
:1023FC002D4743432D31302D706970656C696E65C6
:10240C002D34385F32303230313132345F31363046
:10241C00363138303634312F7372632F6E65776CEA
:10242C0069622F6E65776C69622F6C6962632F73BA
:10243C0074646C69622F72616E642E63000000001C
:10244C0045010A08F5130A0891170A0841180A08E9
:10245C0051180A086D180A08F51D0A08D11E0A0839
:04246C004D200A08ED
:042470000000000068
:1024740003000000040000000200000098220A0883
:102484001400002000000000000000000000000014
:102494000000000000000000000000000000000038
:1024A4000000000000000000000000000000000028
:1024B4000000000000000000000000000000000018
:1024C4000000000000000000000000000000000008
:1024D40000000000000000000000000000000000F8
:0824E40000000000F0040020DC
:1024EC00FFFFFFFF00000102030405060708090AAD
:1024FC000B0C0D0E0F101112131415161718191AA8
:08250C001B1C1D1E1F202800EE
:0425140078563412AF
:04000005080A001CC9
:00000001FF
