:02000004080AE8
:1000000000000A081C220A0800000600060005017C
:080010000402E50C00000000F1
:04001800301F0A0883
:1000200009480A4908B5884205D0094A824202D0E7
:10003000121A01F0BFFE0748074A0021121A01F008
:10004000C7FE064808BD00BF0000002074210A0852
:10005000800000208000002005050020050500200C
:1000600070B500F0F5FD0025054E064CA41BA40854
:10007000AC4200D170BD56F8043B98470135F7E714
:1000800048210A086C210A0800F038B808B500F0C9
:100090005FF8BDE8084000F093BD00F043BB00F0FE
:1000A00049BB0078B0FA80F0400970470123037023
:1000B0007047000010B50D49044600F0F4FB18B17C
:1000C00000200B4B186010BD20460A4900F0EBFBE6
:1000D00008B10120F5E72046074900F0E4FB08B12C
:1000E0000220EEE74FF0FF30EDE700BF441F0A08A3
:1000F0000C000020491F0A084D1F0A0808B50D4BC7
:100100000021188801F0D0F800F0CAFE4FF4165113
:1001100000F0ACFE084800F0C9F8002309220749A6
:10012000074800F0E7FABDE80840064A06490748D4
:1001300000F0D6BD100000208000002098000020B4
:10014000521F0A08571F0A08B5000A08B50C0A080A
:100150002DE9F743384B394E188801F0CFF80446A3
:10016000A0F51B7001F0BEFA31A3D3E9002301F022
:1001700023FBC6E9000100F093FE002C05464ADA95
:100180002D2100F0CCFB61420A22284600F0E0FB62
:1001900000F086FE2A4900F0BEFB00F081FE02233B
:1001A0000093D6E9002300F0B3FC00F079FE254966
:1001B00000F0C4FB0022FF20114600F0F0F80022FE
:1001C000FF210746104600F0EAF80021FF2206460C
:1001D000084600F0E4F8054600F062FEDFF868909B
:1001E0008046D9F80040002C17DA2D2100F097FB4B
:1001F00061420A22404600F0ABFBD9F8001071B909
:100200003A46124800F088F84FF4FA7003B0BDE89F
:10021000F04300F095BC2146B6E72146E9E7022904
:100220000CBF32462A460021EBE700BFAFF3008047
:10023000E0BE0E9C33A2B43F1000002098000020C6
:10024000621F0A08651F0A080C00002080000020B9
:10025000044B054A05491B7812780988044800F0C8
:100260004AB800BF08000020040000200000002061
:100270008000002038B50446C0680D4608B100F083
:1002800059FAA379062B0CBF04200320684380B2DF
:10029000A08000F047FAE06028B10021A28801F0B8
:1002A00097FD658038BDA0806080FBE710B50446EF
:1002B0000121C07900F0F8FF0021E07901F005F894
:1002C0000123237010BD38B5037805460C461BB1D9
:1002D0000021C07900F0E8FF2B78EC7153B1A4B293
:1002E0002046012100F0E0FF2046BDE83840002113
:1002F00000F0EBBF38BD70B500250446164683718B
:10030000C0E9035505700572FFF7B4FF204631467A
:10031000FFF7D9FF204670BD4388F0B58B422DD939
:10032000067AC2F30743C2F30724D5B23EB1734342
:1003300074437543C3F30723C4F307242D0A90F8CD
:1003400006C0C768BCF1060F0CBF042603264E4347
:10035000ACF1020CB919BCF1060F1DD8DFE80CF0A6
:10036000041C08040F040400BC554B708D7005E09C
:10037000FE2B28BFFE23BB554D708C70F0BDBB55C6
:100380004C708D70037A120E13B9D2B2CA70F5E7B1
:100390005A43C2F30722F9E7BB554C70E6E742EA3D
:1003A000012242EA0040704708B500F005F8014B11
:1003B000186008BDA000002008B5024B1B681B6830
:1003C000019308BDB001060808B5024B1B685B68C5
:1003D000019308BDB001060808B5024B1B689B6875
:1003E000019308BDB001060808B5024B1B68DB6825
:1003F000019308BDB001060808B5024B1B681B69D4
:10040000019308BDB001060808B5024B1B681B6BC1
:10041000019308BDB001060808B5024B1B685B6874
:10042000019308BD9C01060808B5024B1B685B6977
:10043000019308BD9C01060808B5024B1B685B6C64
:10044000019308BDD001060808B5024B1B689B6CE0
:10045000019308BDD001060808B5024B1B685B6A12
:10046000019308BDC401060808B5024B1B689B6ACE
:10047000019308BDC401060808B5024B1B68DB6A7E
:10048000019308BDC401060808B5024B1B681B6B2D
:10049000019308BDC401060808B5024B1B685B6BDD
:1004A000019308BDC401060808B5024B1B689B6B8D
:1004B000019308BDC401060808B5024B1B681B6CFC
:1004C000019308BDC401060808B5024B1B681B6EEA
:1004D000019308BDC401060808B5024B1B681B6EDA
:1004E000019308BDAC01060808B5024B1B685B6EA2
:1004F000019308BDAC01060808B5024B1B689B6E52
:10050000019308BDAC01060808B5024B1B68DB6E01
:10051000019308BDAC01060808B5024B1B681B6FB0
:10052000019308BDAC01060808B5024B1B685B6F60
:10053000019308BDAC01060808B5034B1B68D3F84E
:100540008030019308BD0000AC01060808B5024BDD
:100550001B68DB69019308BDB401060808B5024BAE
:100560001B681B6A019308BDB401060808B5024B5D
:100570001B681B68019308BDD801060808B5024B2B
:100580001B685B68019308BDD801060808B5024BDB
:100590001B681B69019308BDD801060808B5024B0A
:1005A0001B685B69019308BDD801060808B5024BBA
:1005B0001B689B69019308BDD801060808B5024B6A
:1005C0001B68DB69019308BDD801060808B5024B1A
:1005D0001B681B6A019308BDD801060808B5024BC9
:1005E0001B689B6C019308BDC001060808B5024B4F
:1005F0001B685B68019308BDA401060808B5024B9F
:100600001B685B69019308BDA401060808B5034B8C
:100610001B68D3F89030019308BD0000A4010608C0
:1006200008B5034B1B68D3F89C30019308BD00004C
:10063000A401060808B5024B1B685B68019308BD5E
:10064000C801060808B5024B1B689B68019308BDEA
:10065000C801060808B5024B1B68DB68019308BD9A
:10066000C801060808B5024B1B681B69019308BD49
:10067000C801060808B5024B1B685B69019308BDF9
:10068000C801060808B5024B1B689B69019308BDA9
:10069000C801060808B5024B1B68DB69019308BD59
:1006A000C801060808B5024B1B681B6A019308BD08
:1006B000C801060808B5024B1B681B6B019308BDF7
:1006C000C801060808B5024B1B685B6B019308BDA7
:1006D000C801060808B5024B1B681B6C019308BDD6
:1006E000C801060808B5024B1B685B6C019308BD86
:1006F000C801060808B5024B1B681B68019308BDBA
:10070000CC01060808B5024B1B685B68019308BD65
:10071000CC01060808B5024B1B68DB6B019308BDD2
:10072000CC01060808B5024B1B681B68019308BD85
:10073000A001060808B5024B1B685B68019308BD61
:10074000A001060808B5024B1B689B68019308BD11
:10075000A001060808B5024B1B681B6C019308BD7D
:10076000A001060808B5024B1B685B6C019308BD2D
:10077000A001060870B5002604460D4640F8086F33
:10078000FFF75AFE28462570FFF7E0FE2046666018
:1007900070BD000002220020044B1A60044B054A81
:1007A000C3E900009A60FFF721BF00BFB00000203E
:1007B000A40000200000FFFF10B504460068FFF70A
:1007C000B9FF204610BD10B50446006808B1FFF718
:1007D000B1FF0023C4E90133236010BD38B50446DE
:1007E0000D4600680131FFF7ADFF10B1C4E9000507
:1007F000012038BD10B50368044623B143688B421D
:1008000001D3012010BD2046FFF7E8FF0028F9D0F2
:10081000A368002BF5D122681370F2E770B50E467D
:10082000114604461546FFF7E5FF20B92046FFF7BD
:10083000CAFF204670BD2A4631462068A56001F0F7
:10084000B9FA00212268A368D154F2E738B5002331
:1008500004460D46C0E900338360037339B108468E
:1008600001F0F6FA294602462046FFF7D7FF204658
:1008700038BD884210B50B46044604D0096821B142
:100880009A68FFF7CBFF204610BDFFF79CFFFAE701
:10089000002310B50446C0E9003383600373FFF7FB
:1008A000E8FF204610BD08B582683AB921B1087842
:1008B000B0FA80F0400900E0012008BD006809B9E5
:1008C0000078F5E701F0BAFAF2E7F8B506460D460A
:1008D00000248F18BD420CD0336830469B6815F851
:1008E000011B9847031E01DB1C44F3E7002C08BFE3
:1008F0001C462046F8BD70B505460C46084649B171
:1009000001F0A6FA2B68024621462846BDE8704051
:10091000DB68184770BD08B5FFF7EDFF08BD036839
:100920009B68184738B50D210546FFF7F8FF0A21E7
:1009300004462846FFF7F3FF204438BD38B5054686
:10094000FFF7D9FF04462846FFF7ECFF204438BDE7
:100950000023012A98BF0A2230B58BB00C468DF8CF
:10096000243009A92546B4FBF2F404FB1253DBB290
:10097000092B94BF30333733DBB2AA4201F8013D73
:10098000F0D9FFF7B8FF0BB030BD00002DE9F74FED
:1009900005461946104692461F469DF8306001F004
:1009A000A5F940B151492846FFF7A5FF0446204666
:1009B00003B0BDE8F08F27F000444FF0FF325046FF
:1009C00021464B4B01F092F948B94FF0FF325046A7
:1009D0002146474B01F06CF908B94649E3E74FF06F
:1009E000604250463946444B01F076F908B143491C
:1009F000D9E74FF0604250463946414B01F04EF97D
:100A00000028F4D1002200235046394601F046F96F
:100A1000044630B12D212846FFF781FF044607F137
:100A200000474FF0000B00204FF000083549DFF879
:100A3000D8905FFA8BF39E4206D942464B4600F0AF
:100A4000E5FF0BF1010BF4E73B46524600F0FEFCDC
:100A50008946804601F088F9074600F033FE0246D9
:100A60000B464046494600F0EFFC0A228046894684
:100A700028463946FFF76CFF0444002E97D02846DD
:100A80002249FFF738FF4FF0000ADFF87CB004443A
:100A9000002E8CD052465B464046494600F08CFE04
:100AA0008046894601F038F9071E1BDA2D212846B9
:100AB000FFF735FF034679420A2228460193FFF7E4
:100AC00047FF019B013E034438461C4400F00AFEE8
:100AD00002460B464046494600F0B6FCF6B2804658
:100AE0008946D5E739460023E6E700BF6B1F0A08B1
:100AF000FFFFEF7F6F1F0A08FFFFEF41731F0A0818
:100B0000FFFFEFC10000E03F00002440771F0A080C
:100B10009DF800100091FFF739BF0000014B024A19
:100B20001A607047B4000020791F0A08024B1A6847
:100B3000024B1A60704700BF14000020B80000206C
:100B40000021FFF75BBD00000022014B9A60704757
:100B5000BC000020014B1860704700BF1800002047
:100B600008B5134B43B100F09BF903681B69984724
:100B7000002801DDAFF300800E4B43B100F0F0FB25
:100B800003681B699847002801DDAFF300800A4B1A
:100B90000BB1AFF30080094B43B100F0BBF9036820
:100BA0001B699847002801DDAFF3008008BD00BF36
:100BB0000000000000000000000000000000000035
:100BC00008B5FFF7CDFFFFF72FFC014B186008BDFC
:100BD000400400200548064A08B5121A054901F0EC
:100BE000E9F8054B054A1A6008BD00BF0040024005
:100BF0000440024070210A08004002401E1C279A4F
:100C0000002307B51A466FF077010093FFF708FD40
:100C100003B05DF804FB000007B543880A2B08D039
:100C2000502B0BD1094B1B684BB103B05DF804EBA3
:100C30001847FFF7E5FF03B05DF804FB00231A46F1
:100C40006FF077010093FFF7EBFCF4E7D000002092
:100C5000002110B51148FFF785FD114B1A68114BA3
:100C60009A420CBF012200220F4B1A7001D0FFF7ED
:100C7000B1FFFFF7D1FB044601F0B2F80B4B13B103
:100C80002046AFF3008000210848FFF743FDBDE890
:100C9000104000210648FFF7B9BC00BF550B0A08F9
:100CA000004002401E1C279ACC00002000000000DB
:100CB000190C0A0810B588B004466846FFF7C6FD4F
:100CC000694604A8FFF7E4FD04A8A047044604A869
:100CD000FFF772FD6846FFF76FFD204608B010BDB4
:100CE0001FB500231024CDE90201019269461A467E
:100CF0001846ADF80230ADF80040FFF703FD04B030
:100D000010BD7047F8B50E46002400F10807051D18
:100D100017F8011D0A223046FFF71AFEAF420444BD
:100D200001D12046F8BD002CF2D02E213046FFF72D
:100D3000F6FD0444ECE710B504461821FFF7AFF9BF
:100D4000204610BD10B50446044B1122002140F886
:100D5000043B01F03DF8204610BD00BFA41F0A0867
:100D60000346074A10B543F8042B01F1100251F86D
:100D7000044B914243F8044BF9D10A781A7010BD24
:100D8000A41F0A08024AC0E9002104220275704724
:100D9000A41F0A0810B59DF8084044EA0324042360
:100DA00044EA024444EA01644460037510BD000053
:100DB00013B5044C04609DF810400094FFF7EAFF5F
:100DC00002B010BDA41F0A084174704770477047F5
:100DD00008B50021007CFFF7E9FB40EAE07008BDA0
:100DE00008B50121007CFFF7E1FB40EAE07008BD97
:100DF00008B5007CFFF7D2FB20EAE07008BD08B51B
:100E0000007CFFF7C3FB20EAE07008BD38B504465C
:100E1000007C0D46FFF7C2FB002801DC607C28B196
:100E20002946207CFFF7CAFB20EAE07038BD007C31
:100E3000FFF7CCBB10B504461421FFF730F920466C
:100E400010BD704710B54FF47A7304460846002170
:100E5000C4E90113044B2074236001231146637419
:100E6000FFF784FB204610BDB81F0A080022007C53
:100E7000FFF784BB10B504461422002100F0A8FF40
:100E8000054B20466360054BE36040F2011323816C
:100E90008123238210BD00BF040100200502002031
:100EA00030B50E4D87B001A8FFF7E4FF2978BFF3F6
:100EB0005B8F11F001040ED12846FFF7F2F850B114
:100EC000214601AA0648FFF7BDFF2846FFF7EEF8C6
:100ED000044800F069FF024807B030BDD40000208C
:100EE000DC000020CD0D0A0810B5044614220021B4
:100EF00000F06EFF054B20466360054BE36040F257
:100F0000011323818123238210BD00BF86020020AC
:100F10008703002010B50E4C86B001A8FFF7E4FF50
:100F20002378BFF35B8FDB070ED42046FFF7B9F8B9
:100F300050B1012101AA0748FFF784FF2046FFF7BF
:100F4000B5F8054800F030FF024806B010BD00BFFC
:100F5000D8000020F0000020430E0A0870474174BA
:100F6000704708B5007CFFF7A7FA20EAE07008BDDB
:100F700008B5007CFFF778FA20EAE07008BD08B5F4
:100F8000007CFFF781FA40EAE07008BD08B5007CFC
:100F9000FFF772FA40EAE07008BD007CFFF77CBA08
:100FA00070B5467C04460D462EB12946207CBDE82E
:100FB0007040FFF751BA007CFFF77EFA0028F4DC9E
:100FC000304670BD10B504461421FFF768F820467E
:100FD00010BD000010B54FF47A7304460846114660
:100FE0000022C4E90123044B2074236001236374AD
:100FF000FFF76AFA204610BDE81F0A087047F8B5E7
:10100000064615460C468F18BC4206D0336830465B
:101010009B6814F8011B9847F6E72846F8BD0022A4
:10102000007CFFF759BA0021007CFFF75DBA002170
:10103000007CFFF761BA0021007CFFF765BA002150
:10104000007CFFF769BA10B504461421FFF727F8B2
:10105000204610BD10B54FF47A73044608460021AF
:10106000C4E90113034B114623602074FFF764FAAF
:10107000204610BD18200A08002240681146FFF7DC
:10108000F1BAF0B5154689B011220E46044600218A
:1010900003A800F09DFE284600F0DAFE002781B28A
:1010A00073682846009703AAFFF798FA30B13946CB
:1010B0002046FFF767FE204609B0F0BD204603A991
:1010C000FFF74EFEF7E7002240681146FFF7EABA45
:1010D000002240681146FFF7F5BA00224068FFF78A
:1010E000E9BA0022406881F00101FFF7D3BA00237A
:1010F00040681A461946FFF7C5BA002340681A46E9
:101100001946FFF7B7BA002240681146FFF79ABAAE
:10111000002202214068FFF79DBA002340681A466A
:10112000FFF788BA0422024B5A60024A1A607047DD
:101130000804002040200A08002340681A46FFF7F0
:1011400079BA002202214068FFF784BA0022406881
:101150001146FFF777BA002240681146FFF782BABE
:10116000002340681A461946FFF784BA00234068F6
:101170001A461946FFF786BA00214068FFF7AABA57
:1011800000214068FFF7AEBA0022406881F00101FB
:10119000FFF780BA00224068FFF78CBA002240684F
:1011A0001146FFF78FBA002240681146FFF77ABA5E
:1011B00070B515468EB0044608A8FFF7C3FD11228E
:1011C000002103A800F004FE0026284600F040FE9F
:1011D0000A4B009681B25B68284603AAFFF7FEF926
:1011E00030B131462046FFF7CDFD20460EB070BD30
:1011F000204603A9FFF7B4FDF7E700BF080400206D
:10120000024B034A1A6000225A6070471004002003
:101210007C200A08024B986808B1FFF715B970479F
:101220001C040020172870B5044601D9002070BDA9
:10123000A0F10D03022B0BD9012824D800F0DAF815
:101240000021007CFFF770F980F00100C0B2EEE7EA
:10125000124E3178BFF35B8F11F001050DD130468E
:10126000FEF71FFF48B129460D48FFF783FA3046C5
:10127000FEF71CFF0B4800F097FD094B1878FFF7AD
:101280006DF90028D2D1123C012C05D800F068F885
:10129000007CFFF709F9D7E70120C8E71804002010
:1012A0001C04002015120A08172838B504460D46FC
:1012B0000AD8FF2908D0FFF7B5FF28B129462046F4
:1012C000BDE83840FFF788B838BD38B504460D464C
:1012D000FFF78AF8FF2810D0062804D84D2323FAF8
:1012E00000F0C30709D42046FFF79CFF28B1294628
:1012F0002046BDE83840FFF77FB838BD10B504463A
:1013000009289CBF0A34A4B22046FFF78BFF50B1D6
:1013100003212046FFF758F8032804D12046BDE8F2
:101320001040FFF771B8002010BD704770B514254C
:1013300004462A46002100F04BFD25808025074EFB
:10134000284631462581258200F078F831466060D4
:10135000284600F073F8E060204670BDB0200A080F
:1013600030B50E4D87B02978BFF35B8F11F00104C3
:1013700011D12846FEF795FE68B101A8FFF7D6FF08
:10138000214601AA0648FFF725FE2846FEF78EFEF5
:10139000044800F009FD024807B030BD28040020D1
:1013A0002C0400202B130A08002307B51A461946FF
:1013B00000930348FFF7FCFC03B05DF804FB00BF9B
:1013C000440400207047000070B514232025084E07
:1013D00004460360314685600561284600F02EF81A
:1013E00031466060284600F029F8E060204670BD74
:1013F000B0200A0830B50E4D87B02978BFF35B8F57
:1014000011F0010411D12846FEF74BFE68B101A886
:10141000FFF7DAFF214601AA0648FFF71BFE284620
:10142000FEF744FE044800F0BFFC024807B030BDA0
:101430005C04002060040020C5130A08FEF72DBEDE
:1014400081F0004102E000BF83F0004330B54FEA75
:1014500041044FEA430594EA050F08BF90EA020FE2
:101460001FBF54EA000C55EA020C7FEA645C7FEA75
:10147000655C00F0E2804FEA5454D4EB5555B8BF98
:101480006D420CDD2C4480EA020281EA030382EA09
:10149000000083EA010180EA020281EA0303362D9B
:1014A00088BF30BD11F0004F4FEA01314FF4801C6E
:1014B0004CEA113102D0404261EB410113F0004F80
:1014C0004FEA03334CEA133302D0524263EB430337
:1014D00094EA050F00F0A780A4F10104D5F1200ED5
:1014E0000DDB02FA0EFC22FA05F2801841F1000130
:1014F00003FA0EF2801843FA05F359410EE0A5F104
:1015000020050EF1200E012A03FA0EFC28BF4CF034
:10151000020C43FA05F3C01851EBE37101F00045EA
:1015200007D54FF0000EDCF1000C7EEB00006EEBF7
:101530000101B1F5801F1BD3B1F5001F0CD3490881
:101540005FEA30004FEA3C0C04F101044FEA4452D8
:1015500012F5800F80F09A80BCF1004F08BF5FEA5F
:10156000500C50F1000041EB045141EA050130BD3F
:101570005FEA4C0C404141EB0101013C28BFB1F551
:10158000801FE9D291F0000F04BF01460020B1FA9C
:1015900081F308BF2033A3F10B03B3F120020CDA6F
:1015A0000C3208DD02F1140CC2F10C0201FA0CF04D
:1015B00021FA02F10CE002F11402D8BFC2F1200CB2
:1015C00001FA02F120FA0CFCDCBF41EA0C01904068
:1015D000E41AA2BF01EB0451294330BD6FEA0404B1
:1015E0001F3C1CDA0C340EDC04F11404C4F120029C
:1015F00020FA04F001FA02F340EA030021FA04F3AE
:1016000045EA030130BDC4F10C04C4F1200220FA04
:1016100002F001FA04F340EA0300294630BD21FA42
:1016200004F0294630BD94F0000F83F4801306BF08
:1016300081F480110134013D4EE77FEA645C18BFFC
:101640007FEA655C29D094EA050F08BF90EA020F93
:1016500005D054EA000C04BF1946104630BD91EA8B
:10166000030F1EBF0021002030BD5FEA545C05D18E
:101670004000494128BF41F0004130BD14F58004CD
:101680003CBF01F5801130BD01F0004545F0FE4141
:1016900041F470014FF0000030BD7FEA645C1ABF76
:1016A000194610467FEA655C1CBF0B46024650EAAD
:1016B000013406BF52EA033591EA030F41F40021D9
:1016C00030BD00BF90F0000F04BF0021704730B55F
:1016D0004FF4806404F132044FF000054FF0000134
:1016E00050E700BF90F0000F04BF0021704730B5F5
:1016F0004FF4806404F1320410F0004548BF4042CA
:101700004FF000013EE700BF42004FEAE2014FEA1E
:1017100031014FEA02701FBF12F07F4393F07F4FF9
:1017200081F06051704732F07F4208BF704793F0FC
:101730007F4F04BF41F40021704730B54FF460740F
:1017400001F0004521F000411CE700BF50EA010212
:1017500008BF704730B54FF000050AE050EA0102BB
:1017600008BF704730B511F0004502D5404261EB2B
:1017700041014FF4806404F132045FEA915C3FF46C
:10178000D8AE4FF003025FEADC0C18BF03325FEA09
:10179000DC0C18BF033202EBDC02C2F1200300FABA
:1017A00003FC20FA02F001FA03FE40EA0E0021FADF
:1017B00002F11444BDE600BF70B54FF0FF0C4CF4CD
:1017C000E06C1CEA11541DBF1CEA135594EA0C0F7F
:1017D00095EA0C0F00F0DEF82C4481EA030621EABA
:1017E0004C5123EA4C5350EA013518BF52EA0335F5
:1017F00041F4801143F4801338D0A0FB02CE4FF0A7
:101800000005E1FB02E506F00042E0FB03E54FF0D6
:101810000006E1FB03569CF0000F18BF4EF0010ECE
:10182000A4F1FF04B6F5007F64F5407404D25FEACA
:101830004E0E6D4146EB060642EAC62141EA55517D
:101840004FEAC52040EA5E504FEACE2EB4F1FD0CBF
:1018500088BFBCF5E06F1ED8BEF1004F08BF5FEA3D
:10186000500E50F1000041EB045170BD06F00046EF
:1018700046EA010140EA020081EA0301B4EB5C049C
:10188000C2BFD4EB0C0541EA045170BD41F4801194
:101890004FF0000E013C00F3AB8014F1360FDEBFB9
:1018A000002001F0004170BDC4F10004203C35DA95
:1018B0000C341BDC04F11404C4F1200500FA05F318
:1018C00020FA04F001FA05F240EA020001F00042B9
:1018D00021F0004110EBD37021FA04F642EB06012F
:1018E0005EEA430E08BF20EAD37070BDC4F10C0459
:1018F000C4F1200500FA04F320FA05F001FA04F21D
:1019000040EA020001F0004110EBD37041F1000108
:101910005EEA430E08BF20EAD37070BDC4F1200513
:1019200000FA05F24EEA020E20FA04F301FA05F27B
:1019300043EA020321FA04F001F0004121FA04F223
:1019400020EA020000EBD3705EEA430E08BF20EAF3
:10195000D37070BD94F0000F0FD101F0004640002D
:1019600041EB010111F4801F08BF013CF7D041EAAF
:10197000060195F0000F18BF704703F000465200B3
:1019800043EB030313F4801F08BF013DF7D043EA84
:101990000603704794EA0C0F0CEA135518BF95EA3A
:1019A0000C0F0CD050EA410618BF52EA4306D1D1C1
:1019B00081EA030101F000414FF0000070BD50EAE0
:1019C000410606BF1046194652EA430619D094EA6A
:1019D0000C0F02D150EA013613D195EA0C0F05D154
:1019E00052EA03361CBF104619460AD181EA0301A8
:1019F00001F0004141F0FE4141F470014FF0000060
:101A000070BD41F0FE4141F4780170BD70B54FF0FA
:101A1000FF0C4CF4E06C1CEA11541DBF1CEA13557A
:101A200094EA0C0F95EA0C0F00F0A7F8A4EB05045C
:101A300081EA030E52EA03354FEA013100F0888053
:101A40004FEA03334FF0805545EA131343EA12631C
:101A50004FEA022245EA111545EA10654FEA0026D1
:101A60000EF000419D4208BF964244F1FD0404F58A
:101A7000407402D25B084FEA3202B61A65EB0305E6
:101A80005B084FEA32024FF480104FF4002CB6EBA3
:101A9000020E75EB030E22BFB61A754640EA0C0023
:101AA0005B084FEA3202B6EB020E75EB030E22BF63
:101AB000B61A754640EA5C005B084FEA3202B6EBA4
:101AC000020E75EB030E22BFB61A754640EA9C0063
:101AD0005B084FEA3202B6EB020E75EB030E22BF33
:101AE000B61A754640EADC0055EA060E18D04FEAF1
:101AF000051545EA16754FEA06164FEAC30343EA91
:101B000052734FEAC2025FEA1C1CC0D111F4801F5D
:101B10000BD141EA00014FF000004FF0004CB6E756
:101B200011F4801F04BF01430020B4F1FD0C88BFF5
:101B3000BCF5E06F3FF6AFAEB5EB030C04BFB6EB00
:101B4000020C5FEA500C50F1000041EB045170BDF3
:101B50000EF0004E4EEA113114EB5C04C2BFD4EB20
:101B60000C0541EA045170BD41F480114FF0000EA4
:101B7000013C90E645EA060E8DE60CEA135594EA20
:101B80000C0F08BF95EA0C0F3FF43BAF94EA0C0F23
:101B90000AD150EA01347FF434AF95EA0C0F7FF498
:101BA00025AF104619462CE795EA0C0F06D152EAEC
:101BB00003353FF4FDAE1046194622E750EA4106D0
:101BC00018BF52EA43067FF4C5AE50EA41047FF4E1
:101BD0000DAF52EA43057FF4EBAE12E74FF0FF3C46
:101BE00006E000BF4FF0010C02E000BF4FF0010C17
:101BF0004DF804CD4FEA410C7FEA6C5C4FEA430C90
:101C000018BF7FEA6C5C1BD001B050EA410C0CBFDE
:101C100052EA430C91EA030F02BF90EA020F002040
:101C2000704710F1000F91EA030F58BF994208BFA7
:101C300090422CBFD8176FEAE37040F00100704764
:101C40004FEA410C7FEA6C5C02D150EA013C07D1BB
:101C50004FEA430C7FEA6C5CD6D152EA033CD3D006
:101C60005DF8040B704700BF8446104662468C4600
:101C70001946634600E000BF01B5FFF7B7FF002833
:101C800048BF10F1000F01BD4DF808EDFFF7F4FF5C
:101C90000CBF012000205DF808FB00BF4DF808EDE7
:101CA000FFF7EAFF34BF012000205DF808FB00BF0A
:101CB0004DF808EDFFF7E0FF94BF012000205DF82C
:101CC00008FB00BF4DF808EDFFF7CEFF94BF0120E1
:101CD00000205DF808FB00BF4DF808EDFFF7C4FFDA
:101CE00034BF012000205DF808FB00BF4FEA410C23
:101CF0007FEA6C5C02D150EA013C0AD14FEA430C06
:101D00007FEA6C5C02D152EA033C02D14FF0000042
:101D100070474FF0010070474FEA410212F5001280
:101D200015D211D56FF47873B3EB625212D94FEA22
:101D3000C12343F0004343EA505311F0004F23FA0C
:101D400002F018BF404270474FF00000704750EA61
:101D5000013005D111F0004008BF6FF0004070471E
:101D60004FF00000704700BF4A0011D212F5001278
:101D700011D20DD56FF47873B3EB62520ED44FEAE3
:101D8000C12343F0004343EA505323FA02F0704763
:101D90004FF00000704750EA013002D14FF0FF30A1
:101DA00070474FF000007047002301461A4618465E
:101DB00000F056B80A44914200F1FF3300D1704759
:101DC00010B511F8014B914203F8014FF9D110BD44
:101DD00003460244934200D1704703F8011BF9E720
:101DE00038B5104B04461D68AB6BB3B91820FEF72D
:101DF00099FC0246A86320B942210B4B0B48FEF721
:101E0000A9FC0B490B4BC0E900130B4B002183606D
:101E10000B2383810120C2E904010022AB6B1C610A
:101E20005A6138BD18000020B1200A08C8200A08ED
:101E30000E33CDAB34126DE6ECDE050010F8012B4D
:101E400011F8013B012A28BF9A42F7D0D01A7047F7
:101E5000034613F8012B002AFBD1181A01387047EA
:101E60002DE9F843DFF8AC800646D8F800001F469D
:101E70000D46914600F058F8274B1C6834B9274CA2
:101E80001C60274B13B11B68C4F8883063681F2B94
:101E900007DDD8F8000000F049F84FF0FF30BDE84A
:101EA000F8835EB3D4F8880088B91E4B23B9D8F8FC
:101EB000000000F03AF8F0E74FF48470FEF732FCCF
:101EC0000028F4D00023C0E94033C4F88800012280
:101ED0006368022E40F8239002FA03F200EB8301BC
:101EE000D0F8003143EA0203C0F80031C1F8807035
:101EF00002BFD0F804311343C0F804316368D8F846
:101F000000005A1C0233626044F8235000F00EF8BF
:101F10000020C4E77C00002000050020740400209D
:101F20000000000025070A0870477047704700004E
:101F300021000A0861000A0889000A088D000A08C1
:101F400000000000436F6F6C004F666600486561DB
:101F5000740074656D700063465F7365744D6F64E3
:101F600065002C20002064656743006E616E006987
:101F70006E66006F7666002E006170700025592D28
:101F8000256D2D25645425483A254D3A2553257A4B
:101F90000061736374696D6500000000000000005B
:101FA00000000000050D0A08030D0A08370D0A0895
:101FB0000000000000000000CF0D0A08350E0A08DE
:101FC0000D0E0A08CB080A08FF0D0A08D10D0A08F1
:101FD000E10D0A082F0E0A08F10D0A08C90D0A08BA
:101FE00000000000000000005D0F0A08C50F0A088D
:101FF000A10F0A08CB080A08710F0A088D0F0A08FA
:102000007F0F0A089B0F0A085F0F0A08630F0A0870
:102010000000000000000000FD0F0A0847100A0839
:102020001F100A08FF0F0A0827100A082F100A08B5
:1020300037100A083F100A080000000000000000E6
:102040001B110A0811110A0807110A0879100A0859
:10205000FB100A08EF100A0879110A0881110A0812
:10206000E3100A08DB100A08D1100A08C7100A0892
:1020700083100A08000000000000000039110A085F
:1020800043110A084D110A0857110A0861110A087C
:102090006D110A0879110A0881110A0889110A08C4
:1020A00095110A089D110A08A7110A08B1110A081A
:1020B000005245454E54206D616C6C6F6320737502
:1020C00063636565646564002F6D6E742F776F724E
:1020D0006B73706163652F776F726B73706163658B
:1020E0002F4743432D31302D706970656C696E65E3
:1020F0002F6A656E6B696E732D4743432D31302D0A
:10210000706970656C696E652D34385F32303230BD
:10211000313132345F313630363138303634312F68
:102120007372632F6E65776C69622F6E65776C6969
:10213000622F6C6962632F7374646C69622F7261C1
:102140006E642E630000000051020A08A9030A0809
:1021500095070A081D0B0A082D0B0A08490B0A08E7
:1021600025110A0801120A08A9130A080000000034
:04217000000000006B
:102174000100000004000000020000000100000053
:102184000A000000911F0A081C0000200000000043
:10219400000000000000000000000000000000003B
:1021A400000000000000000000000000000000002B
:1021B400000000000000000000000000000000001B
:1021C400000000000000000000000000000000000B
:1021D40000000000000000000000000000000000FB
:1021E40000000000000000000000000004050020C2
:1021F400FFFFFFFF00000102030405060708090AA8
:102204000B0C0D0E0F101112131415161718191AA2
:082214001B1C1D1E1F202800E9
:04221C0078563412AA
:04000005080A0020C5
:00000001FF
